{
  "contractName": "FourConnectCalls",
  "abi": [
    {
      "constant": false,
      "inputs": [],
      "name": "renounceOwnership",
      "outputs": [],
      "payable": false,
      "stateMutability": "nonpayable",
      "type": "function"
    },
    {
      "constant": true,
      "inputs": [],
      "name": "isContractOwner",
      "outputs": [
        {
          "name": "",
          "type": "bool"
        }
      ],
      "payable": false,
      "stateMutability": "view",
      "type": "function"
    },
    {
      "constant": true,
      "inputs": [],
      "name": "owner",
      "outputs": [
        {
          "name": "",
          "type": "address"
        }
      ],
      "payable": false,
      "stateMutability": "view",
      "type": "function"
    },
    {
      "constant": false,
      "inputs": [
        {
          "name": "newOwner",
          "type": "address"
        }
      ],
      "name": "transferOwnership",
      "outputs": [],
      "payable": false,
      "stateMutability": "nonpayable",
      "type": "function"
    },
    {
      "anonymous": false,
      "inputs": [
        {
          "indexed": false,
          "name": "gameId",
          "type": "uint256"
        },
        {
          "indexed": false,
          "name": "exclusive",
          "type": "bool"
        }
      ],
      "name": "logGameInitialized",
      "type": "event"
    },
    {
      "anonymous": false,
      "inputs": [
        {
          "indexed": false,
          "name": "gameId",
          "type": "uint256"
        }
      ],
      "name": "logGameStarted",
      "type": "event"
    },
    {
      "anonymous": false,
      "inputs": [
        {
          "indexed": false,
          "name": "gameId",
          "type": "uint256"
        },
        {
          "indexed": false,
          "name": "who",
          "type": "uint8"
        },
        {
          "indexed": false,
          "name": "position",
          "type": "uint8"
        }
      ],
      "name": "logGameMoveMade",
      "type": "event"
    },
    {
      "anonymous": false,
      "inputs": [
        {
          "indexed": false,
          "name": "gameId",
          "type": "uint256"
        }
      ],
      "name": "logGameCanceled",
      "type": "event"
    },
    {
      "anonymous": false,
      "inputs": [
        {
          "indexed": false,
          "name": "gameId",
          "type": "uint256"
        },
        {
          "indexed": false,
          "name": "winner",
          "type": "address"
        }
      ],
      "name": "logGameEnd",
      "type": "event"
    },
    {
      "anonymous": false,
      "inputs": [
        {
          "indexed": true,
          "name": "previousOwner",
          "type": "address"
        },
        {
          "indexed": true,
          "name": "newOwner",
          "type": "address"
        }
      ],
      "name": "OwnershipTransferred",
      "type": "event"
    },
    {
      "constant": true,
      "inputs": [
        {
          "name": "player",
          "type": "address"
        }
      ],
      "name": "getPlayersIds",
      "outputs": [
        {
          "name": "",
          "type": "uint256[]"
        }
      ],
      "payable": false,
      "stateMutability": "view",
      "type": "function"
    },
    {
      "constant": true,
      "inputs": [
        {
          "name": "gameId",
          "type": "uint256"
        }
      ],
      "name": "getBoard",
      "outputs": [
        {
          "name": "",
          "type": "uint8[42]"
        }
      ],
      "payable": false,
      "stateMutability": "view",
      "type": "function"
    },
    {
      "constant": true,
      "inputs": [],
      "name": "getCurrentUID",
      "outputs": [
        {
          "name": "",
          "type": "uint256"
        }
      ],
      "payable": false,
      "stateMutability": "view",
      "type": "function"
    },
    {
      "constant": true,
      "inputs": [],
      "name": "getOpenGameId",
      "outputs": [
        {
          "name": "",
          "type": "uint256"
        }
      ],
      "payable": false,
      "stateMutability": "view",
      "type": "function"
    },
    {
      "constant": true,
      "inputs": [
        {
          "name": "gameId",
          "type": "uint256"
        }
      ],
      "name": "getLastTimePlayed",
      "outputs": [
        {
          "name": "",
          "type": "uint256"
        }
      ],
      "payable": false,
      "stateMutability": "view",
      "type": "function"
    },
    {
      "constant": true,
      "inputs": [
        {
          "name": "gameId",
          "type": "uint256"
        }
      ],
      "name": "getCurrentPlayer",
      "outputs": [
        {
          "name": "",
          "type": "uint8"
        }
      ],
      "payable": false,
      "stateMutability": "view",
      "type": "function"
    },
    {
      "constant": true,
      "inputs": [
        {
          "name": "gameId",
          "type": "uint256"
        }
      ],
      "name": "getCreationTime",
      "outputs": [
        {
          "name": "",
          "type": "uint256"
        }
      ],
      "payable": false,
      "stateMutability": "view",
      "type": "function"
    },
    {
      "constant": true,
      "inputs": [],
      "name": "getMaxMoveTimeout",
      "outputs": [
        {
          "name": "",
          "type": "uint256"
        }
      ],
      "payable": false,
      "stateMutability": "pure",
      "type": "function"
    },
    {
      "constant": true,
      "inputs": [],
      "name": "getMaxCreationTimeout",
      "outputs": [
        {
          "name": "",
          "type": "uint256"
        }
      ],
      "payable": false,
      "stateMutability": "pure",
      "type": "function"
    },
    {
      "constant": true,
      "inputs": [
        {
          "name": "gameId",
          "type": "uint256"
        }
      ],
      "name": "getBidPlayerOne",
      "outputs": [
        {
          "name": "",
          "type": "uint256"
        }
      ],
      "payable": false,
      "stateMutability": "view",
      "type": "function"
    },
    {
      "constant": true,
      "inputs": [
        {
          "name": "gameId",
          "type": "uint256"
        }
      ],
      "name": "getBidPlayerTwo",
      "outputs": [
        {
          "name": "",
          "type": "uint256"
        }
      ],
      "payable": false,
      "stateMutability": "view",
      "type": "function"
    },
    {
      "constant": true,
      "inputs": [
        {
          "name": "gameId",
          "type": "uint256"
        }
      ],
      "name": "getPlayerOne",
      "outputs": [
        {
          "name": "",
          "type": "address"
        }
      ],
      "payable": false,
      "stateMutability": "view",
      "type": "function"
    },
    {
      "constant": true,
      "inputs": [
        {
          "name": "gameId",
          "type": "uint256"
        }
      ],
      "name": "getPlayerTwo",
      "outputs": [
        {
          "name": "",
          "type": "address"
        }
      ],
      "payable": false,
      "stateMutability": "view",
      "type": "function"
    },
    {
      "constant": true,
      "inputs": [
        {
          "name": "gameId",
          "type": "uint256"
        }
      ],
      "name": "getWinner",
      "outputs": [
        {
          "name": "",
          "type": "address"
        }
      ],
      "payable": false,
      "stateMutability": "view",
      "type": "function"
    },
    {
      "constant": true,
      "inputs": [
        {
          "name": "gameId",
          "type": "uint256"
        }
      ],
      "name": "getRunning",
      "outputs": [
        {
          "name": "",
          "type": "bool"
        }
      ],
      "payable": false,
      "stateMutability": "view",
      "type": "function"
    }
  ],
  "bytecode": "0x6080604052336000806101000a81548173ffffffffffffffffffffffffffffffffffffffff021916908373ffffffffffffffffffffffffffffffffffffffff1602179055506000809054906101000a900473ffffffffffffffffffffffffffffffffffffffff1673ffffffffffffffffffffffffffffffffffffffff16600073ffffffffffffffffffffffffffffffffffffffff167f8be0079c531659141344cd1fd0a4f28419497f9722a3daafe3b4186f6b6457e060405160405180910390a361129b806100cf6000396000f3fe608060405234801561001057600080fd5b506004361061013e576000357c01000000000000000000000000000000000000000000000000000000009004806375d1a8bc116100ca578063a33d1cae1161008e578063a33d1cae14610508578063a960f05b1461054a578063c95066d8146105b8578063dabf0edb146105fe578063f2fde38b1461061c5761013e565b806375d1a8bc1461041e57806379cf1c9d1461043c5780637f7dcdbf1461045a5780638da5cb5b1461047c57806397ec23cb146104c65761013e565b80633d412d0f116101115780633d412d0f14610235578063404cf099146102a35780634129b2c91461033c57806345e09e54146103aa578063715018a6146104145761013e565b80630628b6ba14610143578063085279911461018557806326638631146101c75780633c1d93bd14610217575b600080fd5b61016f6004803603602081101561015957600080fd5b8101908080359060200190929190505050610660565b6040518082815260200191505060405180910390f35b6101b16004803603602081101561019b57600080fd5b81019080803590602001909291905050506106f4565b6040518082815260200191505060405180910390f35b6101f3600480360360208110156101dd57600080fd5b8101908080359060200190929190505050610788565b6040518082600281111561020357fe5b60ff16815260200191505060405180910390f35b61021f610829565b6040518082815260200191505060405180910390f35b6102616004803603602081101561024b57600080fd5b8101908080359060200190929190505050610833565b604051808273ffffffffffffffffffffffffffffffffffffffff1673ffffffffffffffffffffffffffffffffffffffff16815260200191505060405180910390f35b6102e5600480360360208110156102b957600080fd5b81019080803573ffffffffffffffffffffffffffffffffffffffff1690602001909291905050506108e7565b6040518080602001828103825283818151815260200191508051906020019060200280838360005b8381101561032857808201518184015260208101905061030d565b505050509050019250505060405180910390f35b6103686004803603602081101561035257600080fd5b81019080803590602001909291905050506109ba565b604051808273ffffffffffffffffffffffffffffffffffffffff1673ffffffffffffffffffffffffffffffffffffffff16815260200191505060405180910390f35b6103d6600480360360208110156103c057600080fd5b8101908080359060200190929190505050610a6e565b6040518082602a60200280838360005b838110156104015780820151818401526020810190506103e6565b5050505090500191505060405180910390f35b61041c610b71565b005b610426610c43565b6040518082815260200191505060405180910390f35b610444610c4d565b6040518082815260200191505060405180910390f35b610462610e2b565b604051808215151515815260200191505060405180910390f35b610484610e82565b604051808273ffffffffffffffffffffffffffffffffffffffff1673ffffffffffffffffffffffffffffffffffffffff16815260200191505060405180910390f35b6104f2600480360360208110156104dc57600080fd5b8101908080359060200190929190505050610eab565b6040518082815260200191505060405180910390f35b6105346004803603602081101561051e57600080fd5b8101908080359060200190929190505050610f3f565b6040518082815260200191505060405180910390f35b6105766004803603602081101561056057600080fd5b8101908080359060200190929190505050610fd3565b604051808273ffffffffffffffffffffffffffffffffffffffff1673ffffffffffffffffffffffffffffffffffffffff16815260200191505060405180910390f35b6105e4600480360360208110156105ce57600080fd5b8101908080359060200190929190505050611087565b604051808215151515815260200191505060405180910390f35b610606611128565b6040518082815260200191505060405180910390f35b61065e6004803603602081101561063257600080fd5b81019080803573ffffffffffffffffffffffffffffffffffffffff169060200190929190505050611132565b005b600081600073ffffffffffffffffffffffffffffffffffffffff166001600083815260200190815260200160002060040160019054906101000a900473ffffffffffffffffffffffffffffffffffffffff1673ffffffffffffffffffffffffffffffffffffffff16141515156106d557600080fd5b6001600084815260200190815260200160002060020154915050919050565b600081600073ffffffffffffffffffffffffffffffffffffffff166001600083815260200190815260200160002060040160019054906101000a900473ffffffffffffffffffffffffffffffffffffffff1673ffffffffffffffffffffffffffffffffffffffff161415151561076957600080fd5b6001600084815260200190815260200160002060000154915050919050565b600081600073ffffffffffffffffffffffffffffffffffffffff166001600083815260200190815260200160002060040160019054906101000a900473ffffffffffffffffffffffffffffffffffffffff1673ffffffffffffffffffffffffffffffffffffffff16141515156107fd57600080fd5b6001600084815260200190815260200160002060040160009054906101000a900460ff16915050919050565b6000600354905090565b600081600073ffffffffffffffffffffffffffffffffffffffff166001600083815260200190815260200160002060040160019054906101000a900473ffffffffffffffffffffffffffffffffffffffff1673ffffffffffffffffffffffffffffffffffffffff16141515156108a857600080fd5b6001600084815260200190815260200160002060050160009054906101000a900473ffffffffffffffffffffffffffffffffffffffff16915050919050565b6060600073ffffffffffffffffffffffffffffffffffffffff168273ffffffffffffffffffffffffffffffffffffffff161415151561092557600080fd5b600260008373ffffffffffffffffffffffffffffffffffffffff1673ffffffffffffffffffffffffffffffffffffffff1681526020019081526020016000208054806020026020016040519081016040528092919081815260200182805480156109ae57602002820191906000526020600020905b81548152602001906001019080831161099a575b50505050509050919050565b600081600073ffffffffffffffffffffffffffffffffffffffff166001600083815260200190815260200160002060040160019054906101000a900473ffffffffffffffffffffffffffffffffffffffff1673ffffffffffffffffffffffffffffffffffffffff1614151515610a2f57600080fd5b6001600084815260200190815260200160002060060160009054906101000a900473ffffffffffffffffffffffffffffffffffffffff16915050919050565b610a7661124b565b81600073ffffffffffffffffffffffffffffffffffffffff166001600083815260200190815260200160002060040160019054906101000a900473ffffffffffffffffffffffffffffffffffffffff1673ffffffffffffffffffffffffffffffffffffffff1614151515610ae957600080fd5b60016000848152602001908152602001600020600701602a806020026040519081016040528092919082602a8015610b64576020028201916000905b82829054906101000a900460ff166002811115610b3e57fe5b81526020019060010190602082600001049283019260010382029150808411610b255790505b5050505050915050919050565b610b79610e2b565b1515610b8457600080fd5b600073ffffffffffffffffffffffffffffffffffffffff166000809054906101000a900473ffffffffffffffffffffffffffffffffffffffff1673ffffffffffffffffffffffffffffffffffffffff167f8be0079c531659141344cd1fd0a4f28419497f9722a3daafe3b4186f6b6457e060405160405180910390a360008060006101000a81548173ffffffffffffffffffffffffffffffffffffffff021916908373ffffffffffffffffffffffffffffffffffffffff160217905550565b6000610708905090565b600080600073ffffffffffffffffffffffffffffffffffffffff166001600083815260200190815260200160002060040160019054906101000a900473ffffffffffffffffffffffffffffffffffffffff1673ffffffffffffffffffffffffffffffffffffffff1614151515610cc257600080fd5b60008090505b60035481111515610db857600015156001600083815260200190815260200160002060060160159054906101000a900460ff161515148015610d6c5750600073ffffffffffffffffffffffffffffffffffffffff166001600083815260200190815260200160002060060160009054906101000a900473ffffffffffffffffffffffffffffffffffffffff1673ffffffffffffffffffffffffffffffffffffffff16145b8015610d9f5750600015156001600083815260200190815260200160002060060160149054906101000a900460ff161515145b15610dad5780925050610e27565b806001019050610cc8565b506040517f08c379a000000000000000000000000000000000000000000000000000000000815260040180806020018281038252600d8152602001807f6e6f206f70656e2067616d65730000000000000000000000000000000000000081525060200191505060405180910390fd5b5090565b60008060009054906101000a900473ffffffffffffffffffffffffffffffffffffffff1673ffffffffffffffffffffffffffffffffffffffff163373ffffffffffffffffffffffffffffffffffffffff1614905090565b60008060009054906101000a900473ffffffffffffffffffffffffffffffffffffffff16905090565b600081600073ffffffffffffffffffffffffffffffffffffffff166001600083815260200190815260200160002060040160019054906101000a900473ffffffffffffffffffffffffffffffffffffffff1673ffffffffffffffffffffffffffffffffffffffff1614151515610f2057600080fd5b6001600084815260200190815260200160002060030154915050919050565b600081600073ffffffffffffffffffffffffffffffffffffffff166001600083815260200190815260200160002060040160019054906101000a900473ffffffffffffffffffffffffffffffffffffffff1673ffffffffffffffffffffffffffffffffffffffff1614151515610fb457600080fd5b6001600084815260200190815260200160002060010154915050919050565b600081600073ffffffffffffffffffffffffffffffffffffffff166001600083815260200190815260200160002060040160019054906101000a900473ffffffffffffffffffffffffffffffffffffffff1673ffffffffffffffffffffffffffffffffffffffff161415151561104857600080fd5b6001600084815260200190815260200160002060040160019054906101000a900473ffffffffffffffffffffffffffffffffffffffff16915050919050565b600081600073ffffffffffffffffffffffffffffffffffffffff166001600083815260200190815260200160002060040160019054906101000a900473ffffffffffffffffffffffffffffffffffffffff1673ffffffffffffffffffffffffffffffffffffffff16141515156110fc57600080fd5b6001600084815260200190815260200160002060060160159054906101000a900460ff16915050919050565b6000610e10905090565b61113a610e2b565b151561114557600080fd5b61114e81611151565b50565b600073ffffffffffffffffffffffffffffffffffffffff168173ffffffffffffffffffffffffffffffffffffffff161415151561118d57600080fd5b8073ffffffffffffffffffffffffffffffffffffffff166000809054906101000a900473ffffffffffffffffffffffffffffffffffffffff1673ffffffffffffffffffffffffffffffffffffffff167f8be0079c531659141344cd1fd0a4f28419497f9722a3daafe3b4186f6b6457e060405160405180910390a3806000806101000a81548173ffffffffffffffffffffffffffffffffffffffff021916908373ffffffffffffffffffffffffffffffffffffffff16021790555050565b61054060405190810160405280602a9060208202803883398082019150509050509056fea165627a7a7230582001f31a7cb82f136c742c465eaa7b5fd54c4ac71706bceb2f316e66bc5eabea740029",
  "source": "pragma solidity ^0.5.2;\n\nimport \"./FourConnectModifiers.sol\";\n\n/// @title Contract for a Connect Four Game\n/// @author Marius Reimer\n/// @notice \n/// @dev This contract contains only external view / call methods\ncontract FourConnectCalls is FourConnectModifiers {\n\n    function getPlayersIds(address player) \n        external \n        view\n        returns (uint[] memory) {\n        require(player != address(0));\n        return joinedGames[player];\n    }\n    \n    function getBoard(uint gameId) \n        external \n        view \n        onlyWhenGameExists(gameId)\n        returns (Player[42] memory) {\n        return games[gameId].board;\n    }\n\n    function getCurrentUID() \n        external\n        view\n        returns (uint) {\n        return currentUID;\n    }\n\n    function getOpenGameId()\n        external\n        view\n        onlyWhenGameExists(0)\n        returns (uint) {\n        for (uint i = 0; i <= currentUID; ++i) {\n            if (games[i].running == false && \n                games[i].winner == address(0) && \n                games[i].exclusive == false) {\n                return i;\n            }\n        }\n        \n        revert(\"no open games\");\n    }\n\n    function getLastTimePlayed(uint gameId)\n        external \n        view \n        onlyWhenGameExists(gameId)\n        returns (uint) {\n        return games[gameId].lastTimePlayed;\n    }\n\n    function getCurrentPlayer(uint gameId)\n        external \n        view \n        onlyWhenGameExists(gameId)\n        returns (Player) {\n        return games[gameId].currentPlayer;\n    }\n\n    function getCreationTime(uint gameId)\n        external \n        view \n        onlyWhenGameExists(gameId)\n        returns (uint) {\n        return games[gameId].creationTime;\n    }\n\n    function getMaxMoveTimeout() \n        pure \n        external\n        returns (uint) {\n        return MAX_MOVE_TIMEOUT;\n    }\n\n    function getMaxCreationTimeout() \n        pure \n        external \n        returns (uint) {\n        return MAX_CREATION_TIMEOUT;\n    }\n\n    function getBidPlayerOne(uint gameId) \n        external \n        view \n        // onlyOwner(gameId)\n        onlyWhenGameExists(gameId)\n        returns(uint) {\n        return games[gameId].bidPlayerOne;\n    }\n\n    function getBidPlayerTwo(uint gameId) \n        external \n        view \n        // onlyNonOwner(gameId)\n        onlyWhenGameExists(gameId)\n        returns(uint) {\n        return games[gameId].bidPlayerTwo;\n    }\n\n    function getPlayerOne(uint gameId)\n        external\n        view\n        onlyWhenGameExists(gameId)\n        returns(address) {\n        return games[gameId].playerOne;\n    }\n\n    function getPlayerTwo(uint gameId)\n        external\n        view\n        onlyWhenGameExists(gameId)\n        returns(address) {\n        return games[gameId].playerTwo;\n    }\n\n    function getWinner(uint gameId)\n        external\n        view\n        onlyWhenGameExists(gameId)\n        returns(address) {\n        return games[gameId].winner;\n    }\n\n    function getRunning(uint gameId)\n        external\n        view\n        onlyWhenGameExists(gameId)\n        returns(bool) {\n        return games[gameId].running;\n    } \n}",
  "sourcePath": "/Users/marius/d/mr/preact-fourconnect/solidity/contracts/FourConnectCalls.sol",
  "compiler": {
    "name": "solc",
    "version": "0.5.2+commit.1df8f40c.Emscripten.clang"
  },
  "schemaVersion": "3.0.1",
  "updatedAt": "2019-01-26T15:26:45.506Z",
  "devdoc": {
    "author": "Marius Reimer",
    "details": "This contract contains only external view / call methods",
    "methods": {
      "isContractOwner()": {
        "return": "true if `msg.sender` is the owner of the contract."
      },
      "owner()": {
        "return": "the address of the owner."
      },
      "renounceOwnership()": {
        "details": "Allows the current owner to relinquish control of the contract."
      },
      "transferOwnership(address)": {
        "details": "Allows the current owner to transfer control of the contract to a newOwner.",
        "params": {
          "newOwner": "The address to transfer ownership to."
        }
      }
    },
    "title": "Contract for a Connect Four Game"
  },
  "userdoc": {
    "methods": {
      "renounceOwnership()": {
        "notice": "Renouncing to ownership will leave the contract without an owner. It will not be possible to call the functions with the `onlyOwner` modifier anymore."
      }
    }
  }
}