{
  "contractName": "FourConnectModifiers",
  "abi": [
    {
      "constant": false,
      "inputs": [],
      "name": "renounceOwnership",
      "outputs": [],
      "payable": false,
      "stateMutability": "nonpayable",
      "type": "function"
    },
    {
      "constant": true,
      "inputs": [],
      "name": "isContractOwner",
      "outputs": [
        {
          "name": "",
          "type": "bool"
        }
      ],
      "payable": false,
      "stateMutability": "view",
      "type": "function"
    },
    {
      "constant": true,
      "inputs": [],
      "name": "owner",
      "outputs": [
        {
          "name": "",
          "type": "address"
        }
      ],
      "payable": false,
      "stateMutability": "view",
      "type": "function"
    },
    {
      "constant": false,
      "inputs": [
        {
          "name": "newOwner",
          "type": "address"
        }
      ],
      "name": "transferOwnership",
      "outputs": [],
      "payable": false,
      "stateMutability": "nonpayable",
      "type": "function"
    },
    {
      "anonymous": false,
      "inputs": [
        {
          "indexed": false,
          "name": "gameId",
          "type": "uint256"
        },
        {
          "indexed": false,
          "name": "exclusive",
          "type": "bool"
        }
      ],
      "name": "logGameInitialized",
      "type": "event"
    },
    {
      "anonymous": false,
      "inputs": [
        {
          "indexed": false,
          "name": "gameId",
          "type": "uint256"
        }
      ],
      "name": "logGameStarted",
      "type": "event"
    },
    {
      "anonymous": false,
      "inputs": [
        {
          "indexed": false,
          "name": "gameId",
          "type": "uint256"
        },
        {
          "indexed": false,
          "name": "who",
          "type": "uint8"
        },
        {
          "indexed": false,
          "name": "position",
          "type": "uint8"
        }
      ],
      "name": "logGameMoveMade",
      "type": "event"
    },
    {
      "anonymous": false,
      "inputs": [
        {
          "indexed": false,
          "name": "gameId",
          "type": "uint256"
        }
      ],
      "name": "logGameCanceled",
      "type": "event"
    },
    {
      "anonymous": false,
      "inputs": [
        {
          "indexed": false,
          "name": "gameId",
          "type": "uint256"
        },
        {
          "indexed": false,
          "name": "winner",
          "type": "address"
        }
      ],
      "name": "logGameEnd",
      "type": "event"
    },
    {
      "anonymous": false,
      "inputs": [
        {
          "indexed": true,
          "name": "previousOwner",
          "type": "address"
        },
        {
          "indexed": true,
          "name": "newOwner",
          "type": "address"
        }
      ],
      "name": "OwnershipTransferred",
      "type": "event"
    }
  ],
  "bytecode": "0x6080604052336000806101000a81548173ffffffffffffffffffffffffffffffffffffffff021916908373ffffffffffffffffffffffffffffffffffffffff1602179055506000809054906101000a900473ffffffffffffffffffffffffffffffffffffffff1673ffffffffffffffffffffffffffffffffffffffff16600073ffffffffffffffffffffffffffffffffffffffff167f8be0079c531659141344cd1fd0a4f28419497f9722a3daafe3b4186f6b6457e060405160405180910390a36103bf806100cf6000396000f3fe608060405234801561001057600080fd5b5060043610610069576000357c010000000000000000000000000000000000000000000000000000000090048063715018a61461006e5780637f7dcdbf146100785780638da5cb5b1461009a578063f2fde38b146100e4575b600080fd5b610076610128565b005b6100806101fa565b604051808215151515815260200191505060405180910390f35b6100a2610251565b604051808273ffffffffffffffffffffffffffffffffffffffff1673ffffffffffffffffffffffffffffffffffffffff16815260200191505060405180910390f35b610126600480360360208110156100fa57600080fd5b81019080803573ffffffffffffffffffffffffffffffffffffffff16906020019092919050505061027a565b005b6101306101fa565b151561013b57600080fd5b600073ffffffffffffffffffffffffffffffffffffffff166000809054906101000a900473ffffffffffffffffffffffffffffffffffffffff1673ffffffffffffffffffffffffffffffffffffffff167f8be0079c531659141344cd1fd0a4f28419497f9722a3daafe3b4186f6b6457e060405160405180910390a360008060006101000a81548173ffffffffffffffffffffffffffffffffffffffff021916908373ffffffffffffffffffffffffffffffffffffffff160217905550565b60008060009054906101000a900473ffffffffffffffffffffffffffffffffffffffff1673ffffffffffffffffffffffffffffffffffffffff163373ffffffffffffffffffffffffffffffffffffffff1614905090565b60008060009054906101000a900473ffffffffffffffffffffffffffffffffffffffff16905090565b6102826101fa565b151561028d57600080fd5b61029681610299565b50565b600073ffffffffffffffffffffffffffffffffffffffff168173ffffffffffffffffffffffffffffffffffffffff16141515156102d557600080fd5b8073ffffffffffffffffffffffffffffffffffffffff166000809054906101000a900473ffffffffffffffffffffffffffffffffffffffff1673ffffffffffffffffffffffffffffffffffffffff167f8be0079c531659141344cd1fd0a4f28419497f9722a3daafe3b4186f6b6457e060405160405180910390a3806000806101000a81548173ffffffffffffffffffffffffffffffffffffffff021916908373ffffffffffffffffffffffffffffffffffffffff1602179055505056fea165627a7a72305820d6f94a0f35ef0a4293c1c658ee657f2c57654bf509ced70129ba5c9e944ec3b70029",
  "source": "pragma solidity ^0.5.2;\n\nimport \"./FourConnectBase.sol\";\n\ncontract FourConnectModifiers is FourConnectBase {\n\n    modifier onlyWhenGameExists(uint gameId) {\n        require(games[gameId].playerOne != address(0));\n        _;\n    }\n\n    modifier onlyWhenGameNotExists(uint gameId) {\n        require(games[gameId].playerOne == address(0));\n        _;\n    }\n\n    modifier onlyWhenRunning(uint gameId) {\n        require(games[gameId].running, \"Game is not running\");\n        _;\n    }\n\n    modifier onlyWhenNotRunning(uint gameId) {\n        require(!games[gameId].running);\n        _;\n    }\n\n    modifier onlyPlayers(uint gameId) {\n        require(\n            msg.sender == games[gameId].playerOne ||\n            msg.sender == games[gameId].playerTwo);\n        _;\n    }\n\n    modifier onlyNonOwner(uint gameId) {\n        require(\n            msg.sender == games[gameId].playerTwo);\n        _;\n    }\n\n    modifier onlyOwner(uint gameId) {\n        require(\n            msg.sender == games[gameId].playerOne, \"Only owner of this game\");\n        _;\n    }\n\n    /// @notice Only the player who is supposed to turn\n    /// @param gameId The id of the game\n    modifier onlyActivePlayer(uint gameId) {\n        require(msg.sender == getPlayerAddress(gameId, true), \"Only active player\");\n        _;\n    }\n\n    /// @notice Only the player who is not supposed to turn\n    /// @param gameId The id of the game\n    modifier onlyInactivePlayer(uint gameId) {\n        require(msg.sender == getPlayerAddress(gameId, false));\n        _;\n    }\n\n    modifier onlyGameCreator(uint gameId) {\n        require(msg.sender == games[gameId].playerOne);\n        _;\n    }\n\n    modifier onlyAfterTimeout(uint gameId) {\n        require(now > games[gameId].lastTimePlayed + MAX_MOVE_TIMEOUT);\n        _;\n    }\n\n    modifier onlyInTimeout(uint gameId) {\n        require(now < games[gameId].lastTimePlayed + MAX_MOVE_TIMEOUT);\n        _;\n    }\n\n    modifier onlyAfterCreationTimeout(uint gameId) {\n        require(now > games[gameId].creationTime + MAX_CREATION_TIMEOUT);\n        _;\n    }\n}",
  "sourcePath": "/Users/marius/d/mr/preact-fourconnect/solidity/contracts/FourConnectModifiers.sol",
  "compiler": {
    "name": "solc",
    "version": "0.5.2+commit.1df8f40c.Emscripten.clang"
  },
  "schemaVersion": "3.0.1",
  "updatedAt": "2019-03-03T15:50:15.706Z",
  "devdoc": {
    "methods": {
      "isContractOwner()": {
        "return": "true if `msg.sender` is the owner of the contract."
      },
      "owner()": {
        "return": "the address of the owner."
      },
      "renounceOwnership()": {
        "details": "Allows the current owner to relinquish control of the contract."
      },
      "transferOwnership(address)": {
        "details": "Allows the current owner to transfer control of the contract to a newOwner.",
        "params": {
          "newOwner": "The address to transfer ownership to."
        }
      }
    }
  },
  "userdoc": {
    "methods": {
      "renounceOwnership()": {
        "notice": "Renouncing to ownership will leave the contract without an owner. It will not be possible to call the functions with the `onlyOwner` modifier anymore."
      }
    }
  }
}