{
  "contractName": "FourConnectCalls",
  "abi": [
    {
      "constant": false,
      "inputs": [],
      "name": "renounceOwnership",
      "outputs": [],
      "payable": false,
      "stateMutability": "nonpayable",
      "type": "function"
    },
    {
      "constant": true,
      "inputs": [],
      "name": "isContractOwner",
      "outputs": [
        {
          "name": "",
          "type": "bool"
        }
      ],
      "payable": false,
      "stateMutability": "view",
      "type": "function"
    },
    {
      "constant": true,
      "inputs": [],
      "name": "owner",
      "outputs": [
        {
          "name": "",
          "type": "address"
        }
      ],
      "payable": false,
      "stateMutability": "view",
      "type": "function"
    },
    {
      "constant": false,
      "inputs": [
        {
          "name": "newOwner",
          "type": "address"
        }
      ],
      "name": "transferOwnership",
      "outputs": [],
      "payable": false,
      "stateMutability": "nonpayable",
      "type": "function"
    },
    {
      "anonymous": false,
      "inputs": [
        {
          "indexed": false,
          "name": "gameId",
          "type": "uint256"
        },
        {
          "indexed": false,
          "name": "exclusive",
          "type": "bool"
        }
      ],
      "name": "logGameInitialized",
      "type": "event"
    },
    {
      "anonymous": false,
      "inputs": [
        {
          "indexed": false,
          "name": "gameId",
          "type": "uint256"
        }
      ],
      "name": "logGameStarted",
      "type": "event"
    },
    {
      "anonymous": false,
      "inputs": [
        {
          "indexed": false,
          "name": "gameId",
          "type": "uint256"
        },
        {
          "indexed": false,
          "name": "who",
          "type": "uint8"
        },
        {
          "indexed": false,
          "name": "position",
          "type": "uint8"
        }
      ],
      "name": "logGameMoveMade",
      "type": "event"
    },
    {
      "anonymous": false,
      "inputs": [
        {
          "indexed": false,
          "name": "gameId",
          "type": "uint256"
        }
      ],
      "name": "logGameCanceled",
      "type": "event"
    },
    {
      "anonymous": false,
      "inputs": [
        {
          "indexed": false,
          "name": "gameId",
          "type": "uint256"
        },
        {
          "indexed": false,
          "name": "winner",
          "type": "address"
        }
      ],
      "name": "logGameEnd",
      "type": "event"
    },
    {
      "anonymous": false,
      "inputs": [
        {
          "indexed": true,
          "name": "previousOwner",
          "type": "address"
        },
        {
          "indexed": true,
          "name": "newOwner",
          "type": "address"
        }
      ],
      "name": "OwnershipTransferred",
      "type": "event"
    },
    {
      "constant": true,
      "inputs": [
        {
          "name": "player",
          "type": "address"
        }
      ],
      "name": "getPlayersIds",
      "outputs": [
        {
          "name": "",
          "type": "uint256[]"
        }
      ],
      "payable": false,
      "stateMutability": "view",
      "type": "function"
    },
    {
      "constant": true,
      "inputs": [
        {
          "name": "gameId",
          "type": "uint256"
        }
      ],
      "name": "getBoard",
      "outputs": [
        {
          "name": "",
          "type": "uint8[42]"
        }
      ],
      "payable": false,
      "stateMutability": "view",
      "type": "function"
    },
    {
      "constant": true,
      "inputs": [],
      "name": "getCurrentUID",
      "outputs": [
        {
          "name": "",
          "type": "uint256"
        }
      ],
      "payable": false,
      "stateMutability": "view",
      "type": "function"
    },
    {
      "constant": true,
      "inputs": [],
      "name": "getOpenGameId",
      "outputs": [
        {
          "name": "",
          "type": "uint256"
        }
      ],
      "payable": false,
      "stateMutability": "view",
      "type": "function"
    },
    {
      "constant": true,
      "inputs": [
        {
          "name": "gameId",
          "type": "uint256"
        }
      ],
      "name": "getLastTimePlayed",
      "outputs": [
        {
          "name": "",
          "type": "uint256"
        }
      ],
      "payable": false,
      "stateMutability": "view",
      "type": "function"
    },
    {
      "constant": true,
      "inputs": [
        {
          "name": "gameId",
          "type": "uint256"
        }
      ],
      "name": "getCurrentPlayer",
      "outputs": [
        {
          "name": "",
          "type": "uint8"
        }
      ],
      "payable": false,
      "stateMutability": "view",
      "type": "function"
    },
    {
      "constant": true,
      "inputs": [
        {
          "name": "gameId",
          "type": "uint256"
        }
      ],
      "name": "getCreationTime",
      "outputs": [
        {
          "name": "",
          "type": "uint256"
        }
      ],
      "payable": false,
      "stateMutability": "view",
      "type": "function"
    },
    {
      "constant": true,
      "inputs": [],
      "name": "getMaxMoveTimeout",
      "outputs": [
        {
          "name": "",
          "type": "uint256"
        }
      ],
      "payable": false,
      "stateMutability": "pure",
      "type": "function"
    },
    {
      "constant": true,
      "inputs": [],
      "name": "getMaxCreationTimeout",
      "outputs": [
        {
          "name": "",
          "type": "uint256"
        }
      ],
      "payable": false,
      "stateMutability": "pure",
      "type": "function"
    },
    {
      "constant": true,
      "inputs": [
        {
          "name": "gameId",
          "type": "uint256"
        }
      ],
      "name": "getBidPlayerOne",
      "outputs": [
        {
          "name": "",
          "type": "uint256"
        }
      ],
      "payable": false,
      "stateMutability": "view",
      "type": "function"
    },
    {
      "constant": true,
      "inputs": [
        {
          "name": "gameId",
          "type": "uint256"
        }
      ],
      "name": "getBidPlayerTwo",
      "outputs": [
        {
          "name": "",
          "type": "uint256"
        }
      ],
      "payable": false,
      "stateMutability": "view",
      "type": "function"
    },
    {
      "constant": true,
      "inputs": [
        {
          "name": "gameId",
          "type": "uint256"
        }
      ],
      "name": "getPlayerOne",
      "outputs": [
        {
          "name": "",
          "type": "address"
        }
      ],
      "payable": false,
      "stateMutability": "view",
      "type": "function"
    },
    {
      "constant": true,
      "inputs": [
        {
          "name": "gameId",
          "type": "uint256"
        }
      ],
      "name": "getPlayerTwo",
      "outputs": [
        {
          "name": "",
          "type": "address"
        }
      ],
      "payable": false,
      "stateMutability": "view",
      "type": "function"
    },
    {
      "constant": true,
      "inputs": [
        {
          "name": "gameId",
          "type": "uint256"
        }
      ],
      "name": "getWinner",
      "outputs": [
        {
          "name": "",
          "type": "address"
        }
      ],
      "payable": false,
      "stateMutability": "view",
      "type": "function"
    },
    {
      "constant": true,
      "inputs": [
        {
          "name": "gameId",
          "type": "uint256"
        }
      ],
      "name": "getRunning",
      "outputs": [
        {
          "name": "",
          "type": "bool"
        }
      ],
      "payable": false,
      "stateMutability": "view",
      "type": "function"
    }
  ],
  "bytecode": "0x6080604052336000806101000a81548173ffffffffffffffffffffffffffffffffffffffff021916908373ffffffffffffffffffffffffffffffffffffffff1602179055506000809054906101000a900473ffffffffffffffffffffffffffffffffffffffff1673ffffffffffffffffffffffffffffffffffffffff16600073ffffffffffffffffffffffffffffffffffffffff167f8be0079c531659141344cd1fd0a4f28419497f9722a3daafe3b4186f6b6457e060405160405180910390a3611373806100cf6000396000f3fe608060405234801561001057600080fd5b506004361061013e576000357c01000000000000000000000000000000000000000000000000000000009004806375d1a8bc116100ca578063a33d1cae1161008e578063a33d1cae14610363578063a960f05b14610393578063c95066d8146103c3578063dabf0edb146103f3578063f2fde38b146104115761013e565b806375d1a8bc146102bb57806379cf1c9d146102d95780637f7dcdbf146102f75780638da5cb5b1461031557806397ec23cb146103335761013e565b80633d412d0f116101115780633d412d0f146101f1578063404cf099146102215780634129b2c91461025157806345e09e5414610281578063715018a6146102b15761013e565b80630628b6ba14610143578063085279911461017357806326638631146101a35780633c1d93bd146101d3575b600080fd5b61015d6004803603610158919081019061105a565b61042d565b60405161016a919061124b565b60405180910390f35b61018d6004803603610188919081019061105a565b6104c1565b60405161019a919061124b565b60405180910390f35b6101bd60048036036101b8919081019061105a565b610555565b6040516101ca9190611210565b60405180910390f35b6101db6105f6565b6040516101e8919061124b565b60405180910390f35b61020b6004803603610206919081019061105a565b610600565b604051610218919061119c565b60405180910390f35b61023b60048036036102369190810190611031565b6106b4565b60405161024891906111d3565b60405180910390f35b61026b6004803603610266919081019061105a565b610787565b604051610278919061119c565b60405180910390f35b61029b6004803603610296919081019061105a565b61083b565b6040516102a891906111b7565b60405180910390f35b6102b961093e565b005b6102c3610a10565b6040516102d0919061124b565b60405180910390f35b6102e1610a1a565b6040516102ee919061124b565b60405180910390f35b6102ff610bc5565b60405161030c91906111f5565b60405180910390f35b61031d610c1c565b60405161032a919061119c565b60405180910390f35b61034d6004803603610348919081019061105a565b610c45565b60405161035a919061124b565b60405180910390f35b61037d6004803603610378919081019061105a565b610cd9565b60405161038a919061124b565b60405180910390f35b6103ad60048036036103a8919081019061105a565b610d6d565b6040516103ba919061119c565b60405180910390f35b6103dd60048036036103d8919081019061105a565b610e21565b6040516103ea91906111f5565b60405180910390f35b6103fb610ec2565b604051610408919061124b565b60405180910390f35b61042b60048036036104269190810190611031565b610ecc565b005b600081600073ffffffffffffffffffffffffffffffffffffffff166001600083815260200190815260200160002060040160019054906101000a900473ffffffffffffffffffffffffffffffffffffffff1673ffffffffffffffffffffffffffffffffffffffff16141515156104a257600080fd5b6001600084815260200190815260200160002060020154915050919050565b600081600073ffffffffffffffffffffffffffffffffffffffff166001600083815260200190815260200160002060040160019054906101000a900473ffffffffffffffffffffffffffffffffffffffff1673ffffffffffffffffffffffffffffffffffffffff161415151561053657600080fd5b6001600084815260200190815260200160002060000154915050919050565b600081600073ffffffffffffffffffffffffffffffffffffffff166001600083815260200190815260200160002060040160019054906101000a900473ffffffffffffffffffffffffffffffffffffffff1673ffffffffffffffffffffffffffffffffffffffff16141515156105ca57600080fd5b6001600084815260200190815260200160002060040160009054906101000a900460ff16915050919050565b6000600354905090565b600081600073ffffffffffffffffffffffffffffffffffffffff166001600083815260200190815260200160002060040160019054906101000a900473ffffffffffffffffffffffffffffffffffffffff1673ffffffffffffffffffffffffffffffffffffffff161415151561067557600080fd5b6001600084815260200190815260200160002060050160009054906101000a900473ffffffffffffffffffffffffffffffffffffffff16915050919050565b6060600073ffffffffffffffffffffffffffffffffffffffff168273ffffffffffffffffffffffffffffffffffffffff16141515156106f257600080fd5b600260008373ffffffffffffffffffffffffffffffffffffffff1673ffffffffffffffffffffffffffffffffffffffff16815260200190815260200160002080548060200260200160405190810160405280929190818152602001828054801561077b57602002820191906000526020600020905b815481526020019060010190808311610767575b50505050509050919050565b600081600073ffffffffffffffffffffffffffffffffffffffff166001600083815260200190815260200160002060040160019054906101000a900473ffffffffffffffffffffffffffffffffffffffff1673ffffffffffffffffffffffffffffffffffffffff16141515156107fc57600080fd5b6001600084815260200190815260200160002060060160009054906101000a900473ffffffffffffffffffffffffffffffffffffffff16915050919050565b610843610fe5565b81600073ffffffffffffffffffffffffffffffffffffffff166001600083815260200190815260200160002060040160019054906101000a900473ffffffffffffffffffffffffffffffffffffffff1673ffffffffffffffffffffffffffffffffffffffff16141515156108b657600080fd5b60016000848152602001908152602001600020600701602a806020026040519081016040528092919082602a8015610931576020028201916000905b82829054906101000a900460ff16600281111561090b57fe5b815260200190600101906020826000010492830192600103820291508084116108f25790505b5050505050915050919050565b610946610bc5565b151561095157600080fd5b600073ffffffffffffffffffffffffffffffffffffffff166000809054906101000a900473ffffffffffffffffffffffffffffffffffffffff1673ffffffffffffffffffffffffffffffffffffffff167f8be0079c531659141344cd1fd0a4f28419497f9722a3daafe3b4186f6b6457e060405160405180910390a360008060006101000a81548173ffffffffffffffffffffffffffffffffffffffff021916908373ffffffffffffffffffffffffffffffffffffffff160217905550565b6000610708905090565b600080600073ffffffffffffffffffffffffffffffffffffffff166001600083815260200190815260200160002060040160019054906101000a900473ffffffffffffffffffffffffffffffffffffffff1673ffffffffffffffffffffffffffffffffffffffff1614151515610a8f57600080fd5b60008090505b60035481111515610b8557600015156001600083815260200190815260200160002060060160159054906101000a900460ff161515148015610b395750600073ffffffffffffffffffffffffffffffffffffffff166001600083815260200190815260200160002060060160009054906101000a900473ffffffffffffffffffffffffffffffffffffffff1673ffffffffffffffffffffffffffffffffffffffff16145b8015610b6c5750600015156001600083815260200190815260200160002060060160149054906101000a900460ff161515145b15610b7a5780925050610bc1565b806001019050610a95565b506040517f08c379a0000000000000000000000000000000000000000000000000000000008152600401610bb89061122b565b60405180910390fd5b5090565b60008060009054906101000a900473ffffffffffffffffffffffffffffffffffffffff1673ffffffffffffffffffffffffffffffffffffffff163373ffffffffffffffffffffffffffffffffffffffff1614905090565b60008060009054906101000a900473ffffffffffffffffffffffffffffffffffffffff16905090565b600081600073ffffffffffffffffffffffffffffffffffffffff166001600083815260200190815260200160002060040160019054906101000a900473ffffffffffffffffffffffffffffffffffffffff1673ffffffffffffffffffffffffffffffffffffffff1614151515610cba57600080fd5b6001600084815260200190815260200160002060030154915050919050565b600081600073ffffffffffffffffffffffffffffffffffffffff166001600083815260200190815260200160002060040160019054906101000a900473ffffffffffffffffffffffffffffffffffffffff1673ffffffffffffffffffffffffffffffffffffffff1614151515610d4e57600080fd5b6001600084815260200190815260200160002060010154915050919050565b600081600073ffffffffffffffffffffffffffffffffffffffff166001600083815260200190815260200160002060040160019054906101000a900473ffffffffffffffffffffffffffffffffffffffff1673ffffffffffffffffffffffffffffffffffffffff1614151515610de257600080fd5b6001600084815260200190815260200160002060040160019054906101000a900473ffffffffffffffffffffffffffffffffffffffff16915050919050565b600081600073ffffffffffffffffffffffffffffffffffffffff166001600083815260200190815260200160002060040160019054906101000a900473ffffffffffffffffffffffffffffffffffffffff1673ffffffffffffffffffffffffffffffffffffffff1614151515610e9657600080fd5b6001600084815260200190815260200160002060060160159054906101000a900460ff16915050919050565b6000610e10905090565b610ed4610bc5565b1515610edf57600080fd5b610ee881610eeb565b50565b600073ffffffffffffffffffffffffffffffffffffffff168173ffffffffffffffffffffffffffffffffffffffff1614151515610f2757600080fd5b8073ffffffffffffffffffffffffffffffffffffffff166000809054906101000a900473ffffffffffffffffffffffffffffffffffffffff1673ffffffffffffffffffffffffffffffffffffffff167f8be0079c531659141344cd1fd0a4f28419497f9722a3daafe3b4186f6b6457e060405160405180910390a3806000806101000a81548173ffffffffffffffffffffffffffffffffffffffff021916908373ffffffffffffffffffffffffffffffffffffffff16021790555050565b61054060405190810160405280602a90602082028038833980820191505090505090565b6000611015823561130b565b905092915050565b6000611029823561131d565b905092915050565b60006020828403121561104357600080fd5b600061105184828501611009565b91505092915050565b60006020828403121561106c57600080fd5b600061107a8482850161101d565b91505092915050565b61108c816112ad565b82525050565b61109b8161127d565b6110a482611266565b60005b828110156110d6576110ba858351611147565b6110c382611293565b91506020850194506001810190506110a7565b5050505050565b60006110e882611288565b8084526020840193506110fa83611270565b60005b8281101561112c5761111086835161118d565b611119826112a0565b91506020860195506001810190506110fd565b50849250505092915050565b611141816112bf565b82525050565b61115081611327565b82525050565b6000600d82527f6e6f206f70656e2067616d6573000000000000000000000000000000000000006020830152604082019050919050565b61119681611301565b82525050565b60006020820190506111b16000830184611083565b92915050565b6000610540820190506111cd6000830184611092565b92915050565b600060208201905081810360008301526111ed81846110dd565b905092915050565b600060208201905061120a6000830184611138565b92915050565b60006020820190506112256000830184611147565b92915050565b6000602082019050818103600083015261124481611156565b9050919050565b6000602082019050611260600083018461118d565b92915050565b6000819050919050565b6000602082019050919050565b6000602a9050919050565b600081519050919050565b6000602082019050919050565b6000602082019050919050565b60006112b8826112e1565b9050919050565b60008115159050919050565b60006003821015156112d957fe5b819050919050565b600073ffffffffffffffffffffffffffffffffffffffff82169050919050565b6000819050919050565b6000611316826112e1565b9050919050565b6000819050919050565b6000611332826112cb565b905091905056fea265627a7a723058206ccbe74e0b43899916cf8fec597fb6397ff77a7c80438e4cefc485ee4345046a6c6578706572696d656e74616cf50037",
  "source": "pragma solidity ^0.5.2;\n\npragma experimental ABIEncoderV2;\n\nimport \"./FourConnectModifiers.sol\";\n\n/// @title Contract for a Connect Four Game\n/// @author Marius Reimer\n/// @notice \n/// @dev This contract contains only external view / call methods\ncontract FourConnectCalls is FourConnectModifiers {\n\n    function getPlayersIds(address player) \n        external \n        view\n        returns (uint[] memory) {\n        require(player != address(0));\n        return joinedGames[player];\n    }\n    \n    function getBoard(uint gameId) \n        external \n        view \n        onlyWhenGameExists(gameId)\n        returns (Player[42] memory) {\n        return games[gameId].board;\n    }\n\n    function getCurrentUID() \n        external\n        view\n        returns (uint) {\n        return currentUID;\n    }\n\n    function getOpenGameId()\n        external\n        view\n        onlyWhenGameExists(0)\n        returns (uint) {\n        for (uint i = 0; i <= currentUID; ++i) {\n            if (games[i].running == false && \n                games[i].winner == address(0) && \n                games[i].exclusive == false) {\n                return i;\n            }\n        }\n        \n        revert(\"no open games\");\n    }\n\n    function getLastTimePlayed(uint gameId)\n        external \n        view \n        onlyWhenGameExists(gameId)\n        returns (uint) {\n        return games[gameId].lastTimePlayed;\n    }\n\n    function getCurrentPlayer(uint gameId)\n        external \n        view \n        onlyWhenGameExists(gameId)\n        returns (Player) {\n        return games[gameId].currentPlayer;\n    }\n\n    function getCreationTime(uint gameId)\n        external \n        view \n        onlyWhenGameExists(gameId)\n        returns (uint) {\n        return games[gameId].creationTime;\n    }\n\n    function getMaxMoveTimeout()\n        external \n        pure \n        returns (uint) {\n        return MAX_MOVE_TIMEOUT;\n    }\n\n    function getMaxCreationTimeout() \n        external \n        pure \n        returns (uint) {\n        return MAX_CREATION_TIMEOUT;\n    }\n\n    function getBidPlayerOne(uint gameId) \n        external \n        view \n        // onlyOwner(gameId)\n        onlyWhenGameExists(gameId)\n        returns(uint) {\n        return games[gameId].bidPlayerOne;\n    }\n\n    function getBidPlayerTwo(uint gameId) \n        external \n        view \n        // onlyNonOwner(gameId)\n        onlyWhenGameExists(gameId)\n        returns(uint) {\n        return games[gameId].bidPlayerTwo;\n    }\n\n    function getPlayerOne(uint gameId)\n        external\n        view\n        onlyWhenGameExists(gameId)\n        returns(address) {\n        return games[gameId].playerOne;\n    }\n\n    function getPlayerTwo(uint gameId)\n        external\n        view\n        onlyWhenGameExists(gameId)\n        returns(address) {\n        return games[gameId].playerTwo;\n    }\n\n    function getWinner(uint gameId)\n        external\n        view\n        onlyWhenGameExists(gameId)\n        returns(address) {\n        return games[gameId].winner;\n    }\n\n    function getRunning(uint gameId)\n        external\n        view\n        onlyWhenGameExists(gameId)\n        returns(bool) {\n        return games[gameId].running;\n    } \n}",
  "sourcePath": "/Users/marius/d/mr/preact-fourconnect/solidity/contracts/FourConnectCalls.sol",
  "compiler": {
    "name": "solc",
    "version": "0.5.2+commit.1df8f40c.Emscripten.clang"
  },
  "schemaVersion": "3.0.1",
  "updatedAt": "2019-02-23T14:29:47.538Z",
  "devdoc": {
    "author": "Marius Reimer",
    "details": "This contract contains only external view / call methods",
    "methods": {
      "isContractOwner()": {
        "return": "true if `msg.sender` is the owner of the contract."
      },
      "owner()": {
        "return": "the address of the owner."
      },
      "renounceOwnership()": {
        "details": "Allows the current owner to relinquish control of the contract."
      },
      "transferOwnership(address)": {
        "details": "Allows the current owner to transfer control of the contract to a newOwner.",
        "params": {
          "newOwner": "The address to transfer ownership to."
        }
      }
    },
    "title": "Contract for a Connect Four Game"
  },
  "userdoc": {
    "methods": {
      "renounceOwnership()": {
        "notice": "Renouncing to ownership will leave the contract without an owner. It will not be possible to call the functions with the `onlyOwner` modifier anymore."
      }
    }
  }
}