{
  "contractName": "FourConnectCalls",
  "abi": [
    {
      "anonymous": false,
      "inputs": [
        {
          "indexed": false,
          "name": "gameId",
          "type": "uint256"
        },
        {
          "indexed": false,
          "name": "exclusive",
          "type": "bool"
        }
      ],
      "name": "logGameInitialized",
      "type": "event"
    },
    {
      "anonymous": false,
      "inputs": [
        {
          "indexed": false,
          "name": "gameId",
          "type": "uint256"
        }
      ],
      "name": "logGameStarted",
      "type": "event"
    },
    {
      "anonymous": false,
      "inputs": [
        {
          "indexed": false,
          "name": "gameId",
          "type": "uint256"
        },
        {
          "indexed": false,
          "name": "who",
          "type": "uint8"
        },
        {
          "indexed": false,
          "name": "position",
          "type": "uint8"
        }
      ],
      "name": "logGameMoveMade",
      "type": "event"
    },
    {
      "anonymous": false,
      "inputs": [
        {
          "indexed": false,
          "name": "gameId",
          "type": "uint256"
        }
      ],
      "name": "logGameCanceled",
      "type": "event"
    },
    {
      "anonymous": false,
      "inputs": [
        {
          "indexed": false,
          "name": "gameId",
          "type": "uint256"
        },
        {
          "indexed": false,
          "name": "winner",
          "type": "address"
        }
      ],
      "name": "logGameEnd",
      "type": "event"
    },
    {
      "constant": true,
      "inputs": [
        {
          "name": "gameId",
          "type": "uint256"
        }
      ],
      "name": "getBoard",
      "outputs": [
        {
          "name": "",
          "type": "uint8[42]"
        }
      ],
      "payable": false,
      "stateMutability": "view",
      "type": "function"
    },
    {
      "constant": true,
      "inputs": [],
      "name": "getCurrentUID",
      "outputs": [
        {
          "name": "",
          "type": "uint256"
        }
      ],
      "payable": false,
      "stateMutability": "view",
      "type": "function"
    },
    {
      "constant": true,
      "inputs": [],
      "name": "getOpenGameId",
      "outputs": [
        {
          "name": "",
          "type": "uint256"
        }
      ],
      "payable": false,
      "stateMutability": "view",
      "type": "function"
    },
    {
      "constant": true,
      "inputs": [
        {
          "name": "gameId",
          "type": "uint256"
        }
      ],
      "name": "getLastTimePlayed",
      "outputs": [
        {
          "name": "",
          "type": "uint256"
        }
      ],
      "payable": false,
      "stateMutability": "view",
      "type": "function"
    },
    {
      "constant": true,
      "inputs": [
        {
          "name": "gameId",
          "type": "uint256"
        }
      ],
      "name": "getCurrentPlayer",
      "outputs": [
        {
          "name": "",
          "type": "uint8"
        }
      ],
      "payable": false,
      "stateMutability": "view",
      "type": "function"
    },
    {
      "constant": true,
      "inputs": [
        {
          "name": "gameId",
          "type": "uint256"
        }
      ],
      "name": "getCreationTime",
      "outputs": [
        {
          "name": "",
          "type": "uint256"
        }
      ],
      "payable": false,
      "stateMutability": "view",
      "type": "function"
    },
    {
      "constant": true,
      "inputs": [],
      "name": "getMaxMoveTimeout",
      "outputs": [
        {
          "name": "",
          "type": "uint256"
        }
      ],
      "payable": false,
      "stateMutability": "pure",
      "type": "function"
    },
    {
      "constant": true,
      "inputs": [],
      "name": "getMaxCreationTimeout",
      "outputs": [
        {
          "name": "",
          "type": "uint256"
        }
      ],
      "payable": false,
      "stateMutability": "pure",
      "type": "function"
    },
    {
      "constant": true,
      "inputs": [
        {
          "name": "gameId",
          "type": "uint256"
        }
      ],
      "name": "getBidPlayerOne",
      "outputs": [
        {
          "name": "",
          "type": "uint256"
        }
      ],
      "payable": false,
      "stateMutability": "view",
      "type": "function"
    },
    {
      "constant": true,
      "inputs": [
        {
          "name": "gameId",
          "type": "uint256"
        }
      ],
      "name": "getBidPlayerTwo",
      "outputs": [
        {
          "name": "",
          "type": "uint256"
        }
      ],
      "payable": false,
      "stateMutability": "view",
      "type": "function"
    },
    {
      "constant": true,
      "inputs": [
        {
          "name": "gameId",
          "type": "uint256"
        }
      ],
      "name": "getPlayerOne",
      "outputs": [
        {
          "name": "",
          "type": "address"
        }
      ],
      "payable": false,
      "stateMutability": "view",
      "type": "function"
    },
    {
      "constant": true,
      "inputs": [
        {
          "name": "gameId",
          "type": "uint256"
        }
      ],
      "name": "getPlayerTwo",
      "outputs": [
        {
          "name": "",
          "type": "address"
        }
      ],
      "payable": false,
      "stateMutability": "view",
      "type": "function"
    },
    {
      "constant": true,
      "inputs": [
        {
          "name": "gameId",
          "type": "uint256"
        }
      ],
      "name": "getWinner",
      "outputs": [
        {
          "name": "",
          "type": "address"
        }
      ],
      "payable": false,
      "stateMutability": "view",
      "type": "function"
    },
    {
      "constant": true,
      "inputs": [
        {
          "name": "gameId",
          "type": "uint256"
        }
      ],
      "name": "getRunning",
      "outputs": [
        {
          "name": "",
          "type": "bool"
        }
      ],
      "payable": false,
      "stateMutability": "view",
      "type": "function"
    }
  ],
  "bytecode": "0x608060405234801561001057600080fd5b50610e34806100206000396000f3fe6080604052600436106100ca576000357c0100000000000000000000000000000000000000000000000000000000900480630628b6ba146100cf578063085279911461011e578063266386311461016d5780633c1d93bd146101ca5780633d412d0f146101f55780634129b2c91461027057806345e09e54146102eb57806375d1a8bc1461036257806379cf1c9d1461038d57806397ec23cb146103b8578063a33d1cae14610407578063a960f05b14610456578063c95066d8146104d1578063dabf0edb14610524575b600080fd5b3480156100db57600080fd5b50610108600480360360208110156100f257600080fd5b810190808035906020019092919050505061054f565b6040518082815260200191505060405180910390f35b34801561012a57600080fd5b506101576004803603602081101561014157600080fd5b81019080803590602001909291905050506105e1565b6040518082815260200191505060405180910390f35b34801561017957600080fd5b506101a66004803603602081101561019057600080fd5b8101908080359060200190929190505050610673565b604051808260028111156101b657fe5b60ff16815260200191505060405180910390f35b3480156101d657600080fd5b506101df610712565b6040518082815260200191505060405180910390f35b34801561020157600080fd5b5061022e6004803603602081101561021857600080fd5b810190808035906020019092919050505061071c565b604051808273ffffffffffffffffffffffffffffffffffffffff1673ffffffffffffffffffffffffffffffffffffffff16815260200191505060405180910390f35b34801561027c57600080fd5b506102a96004803603602081101561029357600080fd5b81019080803590602001909291905050506107ce565b604051808273ffffffffffffffffffffffffffffffffffffffff1673ffffffffffffffffffffffffffffffffffffffff16815260200191505060405180910390f35b3480156102f757600080fd5b506103246004803603602081101561030e57600080fd5b8101908080359060200190929190505050610880565b6040518082602a60200280838360005b8381101561034f578082015181840152602081019050610334565b5050505090500191505060405180910390f35b34801561036e57600080fd5b50610377610981565b6040518082815260200191505060405180910390f35b34801561039957600080fd5b506103a261098b565b6040518082815260200191505060405180910390f35b3480156103c457600080fd5b506103f1600480360360208110156103db57600080fd5b8101908080359060200190929190505050610b65565b6040518082815260200191505060405180910390f35b34801561041357600080fd5b506104406004803603602081101561042a57600080fd5b8101908080359060200190929190505050610bf7565b6040518082815260200191505060405180910390f35b34801561046257600080fd5b5061048f6004803603602081101561047957600080fd5b8101908080359060200190929190505050610c89565b604051808273ffffffffffffffffffffffffffffffffffffffff1673ffffffffffffffffffffffffffffffffffffffff16815260200191505060405180910390f35b3480156104dd57600080fd5b5061050a600480360360208110156104f457600080fd5b8101908080359060200190929190505050610d3b565b604051808215151515815260200191505060405180910390f35b34801561053057600080fd5b50610539610dda565b6040518082815260200191505060405180910390f35b600081600073ffffffffffffffffffffffffffffffffffffffff1660008083815260200190815260200160002060040160019054906101000a900473ffffffffffffffffffffffffffffffffffffffff1673ffffffffffffffffffffffffffffffffffffffff16141515156105c357600080fd5b60008084815260200190815260200160002060020154915050919050565b600081600073ffffffffffffffffffffffffffffffffffffffff1660008083815260200190815260200160002060040160019054906101000a900473ffffffffffffffffffffffffffffffffffffffff1673ffffffffffffffffffffffffffffffffffffffff161415151561065557600080fd5b60008084815260200190815260200160002060000154915050919050565b600081600073ffffffffffffffffffffffffffffffffffffffff1660008083815260200190815260200160002060040160019054906101000a900473ffffffffffffffffffffffffffffffffffffffff1673ffffffffffffffffffffffffffffffffffffffff16141515156106e757600080fd5b60008084815260200190815260200160002060040160009054906101000a900460ff16915050919050565b6000600154905090565b600081600073ffffffffffffffffffffffffffffffffffffffff1660008083815260200190815260200160002060040160019054906101000a900473ffffffffffffffffffffffffffffffffffffffff1673ffffffffffffffffffffffffffffffffffffffff161415151561079057600080fd5b60008084815260200190815260200160002060050160009054906101000a900473ffffffffffffffffffffffffffffffffffffffff16915050919050565b600081600073ffffffffffffffffffffffffffffffffffffffff1660008083815260200190815260200160002060040160019054906101000a900473ffffffffffffffffffffffffffffffffffffffff1673ffffffffffffffffffffffffffffffffffffffff161415151561084257600080fd5b60008084815260200190815260200160002060060160009054906101000a900473ffffffffffffffffffffffffffffffffffffffff16915050919050565b610888610de4565b81600073ffffffffffffffffffffffffffffffffffffffff1660008083815260200190815260200160002060040160019054906101000a900473ffffffffffffffffffffffffffffffffffffffff1673ffffffffffffffffffffffffffffffffffffffff16141515156108fa57600080fd5b600080848152602001908152602001600020600701602a806020026040519081016040528092919082602a8015610974576020028201916000905b82829054906101000a900460ff16600281111561094e57fe5b815260200190600101906020826000010492830192600103820291508084116109355790505b5050505050915050919050565b6000610708905090565b600080600073ffffffffffffffffffffffffffffffffffffffff1660008083815260200190815260200160002060040160019054906101000a900473ffffffffffffffffffffffffffffffffffffffff1673ffffffffffffffffffffffffffffffffffffffff16141515156109ff57600080fd5b60008090505b60015481111515610af2576000151560008083815260200190815260200160002060060160159054906101000a900460ff161515148015610aa75750600073ffffffffffffffffffffffffffffffffffffffff1660008083815260200190815260200160002060060160009054906101000a900473ffffffffffffffffffffffffffffffffffffffff1673ffffffffffffffffffffffffffffffffffffffff16145b8015610ad957506000151560008083815260200190815260200160002060060160149054906101000a900460ff161515145b15610ae75780925050610b61565b806001019050610a05565b506040517f08c379a000000000000000000000000000000000000000000000000000000000815260040180806020018281038252600d8152602001807f6e6f206f70656e2067616d65730000000000000000000000000000000000000081525060200191505060405180910390fd5b5090565b600081600073ffffffffffffffffffffffffffffffffffffffff1660008083815260200190815260200160002060040160019054906101000a900473ffffffffffffffffffffffffffffffffffffffff1673ffffffffffffffffffffffffffffffffffffffff1614151515610bd957600080fd5b60008084815260200190815260200160002060030154915050919050565b600081600073ffffffffffffffffffffffffffffffffffffffff1660008083815260200190815260200160002060040160019054906101000a900473ffffffffffffffffffffffffffffffffffffffff1673ffffffffffffffffffffffffffffffffffffffff1614151515610c6b57600080fd5b60008084815260200190815260200160002060010154915050919050565b600081600073ffffffffffffffffffffffffffffffffffffffff1660008083815260200190815260200160002060040160019054906101000a900473ffffffffffffffffffffffffffffffffffffffff1673ffffffffffffffffffffffffffffffffffffffff1614151515610cfd57600080fd5b60008084815260200190815260200160002060040160019054906101000a900473ffffffffffffffffffffffffffffffffffffffff16915050919050565b600081600073ffffffffffffffffffffffffffffffffffffffff1660008083815260200190815260200160002060040160019054906101000a900473ffffffffffffffffffffffffffffffffffffffff1673ffffffffffffffffffffffffffffffffffffffff1614151515610daf57600080fd5b60008084815260200190815260200160002060060160159054906101000a900460ff16915050919050565b6000610e10905090565b61054060405190810160405280602a9060208202803883398082019150509050509056fea165627a7a72305820bc9d8ea4198f238ef9b8ed99ed02fd45322742a179baccfe432e1df5cd16f31f0029",
  "source": "pragma solidity >=0.5.0 < 0.6.0;\n\nimport \"./FourConnectModifiers.sol\";\n\n/// @title Contract for a Connect Four Game\n/// @author Marius Reimer\n/// @notice \n/// @dev This contract contains only external view / call methods\ncontract FourConnectCalls is FourConnectModifiers {\n    \n    function getBoard(uint gameId) \n        external \n        view \n        onlyWhenGameExists(gameId)\n        returns (Player[42] memory) {\n        return games[gameId].board;\n    }\n\n    function getCurrentUID() \n        external\n        view\n        returns (uint) {\n        return currentUID;\n    }\n\n    function getOpenGameId()\n        external\n        view\n        onlyWhenGameExists(0)\n        returns (uint) {\n        for (uint i = 0; i <= currentUID; ++i) {\n            if (games[i].running == false &&\n                games[i].winner == address(0) && \n                games[i].exclusive == false) {\n                return i;\n            }\n        }\n        \n        revert(\"no open games\");\n    }\n\n    function getLastTimePlayed(uint gameId)\n        external \n        view \n        onlyWhenGameExists(gameId)\n        returns (uint) {\n        return games[gameId].lastTimePlayed;\n    }\n\n    function getCurrentPlayer(uint gameId)\n        external \n        view \n        onlyWhenGameExists(gameId)\n        returns (Player) {\n        return games[gameId].currentPlayer;\n    }\n\n    function getCreationTime(uint gameId)\n        external \n        view \n        onlyWhenGameExists(gameId)\n        returns (uint) {\n        return games[gameId].creationTime;\n    }\n\n    function getMaxMoveTimeout() \n        pure \n        external\n        returns (uint) {\n        return MAX_MOVE_TIMEOUT;\n    }\n\n    function getMaxCreationTimeout() \n        pure \n        external \n        returns (uint) {\n        return MAX_CREATION_TIMEOUT;\n    }\n\n    function getBidPlayerOne(uint gameId) \n        external \n        view \n        // onlyOwner(gameId)\n        onlyWhenGameExists(gameId)\n        returns(uint) {\n        return games[gameId].bidPlayerOne;\n    }\n\n    function getBidPlayerTwo(uint gameId) \n        external \n        view \n        // onlyNonOwner(gameId)\n        onlyWhenGameExists(gameId)\n        returns(uint) {\n        return games[gameId].bidPlayerTwo;\n    }\n\n    function getPlayerOne(uint gameId)\n        external\n        view\n        onlyWhenGameExists(gameId)\n        returns(address) {\n        return games[gameId].playerOne;\n    }\n\n    function getPlayerTwo(uint gameId)\n        external\n        view\n        onlyWhenGameExists(gameId)\n        returns(address) {\n        return games[gameId].playerTwo;\n    }\n\n    function getWinner(uint gameId)\n        external\n        view\n        onlyWhenGameExists(gameId)\n        returns(address) {\n        return games[gameId].winner;\n    }\n\n    function getRunning(uint gameId)\n        external\n        view\n        onlyWhenGameExists(gameId)\n        returns(bool) {\n        return games[gameId].running;\n    } \n}",
  "sourcePath": "/Users/marius/d/mr/preact-fourconnect/solidity/contracts/FourConnectCalls.sol",
  "compiler": {
    "name": "solc",
    "version": "0.5.1+commit.c8a2cb62.Emscripten.clang"
  },
  "schemaVersion": "3.0.1",
  "updatedAt": "2019-01-06T14:19:36.883Z",
  "devdoc": {
    "author": "Marius Reimer",
    "details": "This contract contains only external view / call methods",
    "methods": {},
    "title": "Contract for a Connect Four Game"
  },
  "userdoc": {
    "methods": {}
  }
}