{
  "contractName": "FourConnect",
  "abi": [
    {
      "constant": true,
      "inputs": [
        {
          "name": "gameId",
          "type": "uint256"
        }
      ],
      "name": "getLastTimePlayed",
      "outputs": [
        {
          "name": "",
          "type": "uint256"
        }
      ],
      "payable": false,
      "stateMutability": "view",
      "type": "function",
      "signature": "0x0628b6ba"
    },
    {
      "constant": true,
      "inputs": [
        {
          "name": "gameId",
          "type": "uint256"
        }
      ],
      "name": "getBidPlayerOne",
      "outputs": [
        {
          "name": "",
          "type": "uint256"
        }
      ],
      "payable": false,
      "stateMutability": "view",
      "type": "function",
      "signature": "0x08527991"
    },
    {
      "constant": true,
      "inputs": [
        {
          "name": "gameId",
          "type": "uint256"
        }
      ],
      "name": "getCurrentPlayer",
      "outputs": [
        {
          "name": "",
          "type": "uint8"
        }
      ],
      "payable": false,
      "stateMutability": "view",
      "type": "function",
      "signature": "0x26638631"
    },
    {
      "constant": true,
      "inputs": [],
      "name": "getCurrentUID",
      "outputs": [
        {
          "name": "",
          "type": "uint256"
        }
      ],
      "payable": false,
      "stateMutability": "view",
      "type": "function",
      "signature": "0x3c1d93bd"
    },
    {
      "constant": true,
      "inputs": [
        {
          "name": "gameId",
          "type": "uint256"
        }
      ],
      "name": "getPlayerTwo",
      "outputs": [
        {
          "name": "",
          "type": "address"
        }
      ],
      "payable": false,
      "stateMutability": "view",
      "type": "function",
      "signature": "0x3d412d0f"
    },
    {
      "constant": true,
      "inputs": [
        {
          "name": "gameId",
          "type": "uint256"
        }
      ],
      "name": "getWinner",
      "outputs": [
        {
          "name": "",
          "type": "address"
        }
      ],
      "payable": false,
      "stateMutability": "view",
      "type": "function",
      "signature": "0x4129b2c9"
    },
    {
      "constant": true,
      "inputs": [
        {
          "name": "gameId",
          "type": "uint256"
        }
      ],
      "name": "getBoard",
      "outputs": [
        {
          "name": "",
          "type": "uint8[42]"
        }
      ],
      "payable": false,
      "stateMutability": "view",
      "type": "function",
      "signature": "0x45e09e54"
    },
    {
      "constant": true,
      "inputs": [],
      "name": "getMaxCreationTimeout",
      "outputs": [
        {
          "name": "",
          "type": "uint256"
        }
      ],
      "payable": false,
      "stateMutability": "pure",
      "type": "function",
      "signature": "0x75d1a8bc"
    },
    {
      "constant": true,
      "inputs": [],
      "name": "getOpenGameId",
      "outputs": [
        {
          "name": "",
          "type": "uint256"
        }
      ],
      "payable": false,
      "stateMutability": "view",
      "type": "function",
      "signature": "0x79cf1c9d"
    },
    {
      "constant": true,
      "inputs": [
        {
          "name": "gameId",
          "type": "uint256"
        }
      ],
      "name": "getCreationTime",
      "outputs": [
        {
          "name": "",
          "type": "uint256"
        }
      ],
      "payable": false,
      "stateMutability": "view",
      "type": "function",
      "signature": "0x97ec23cb"
    },
    {
      "constant": true,
      "inputs": [
        {
          "name": "gameId",
          "type": "uint256"
        }
      ],
      "name": "getBidPlayerTwo",
      "outputs": [
        {
          "name": "",
          "type": "uint256"
        }
      ],
      "payable": false,
      "stateMutability": "view",
      "type": "function",
      "signature": "0xa33d1cae"
    },
    {
      "constant": true,
      "inputs": [
        {
          "name": "gameId",
          "type": "uint256"
        }
      ],
      "name": "getPlayerOne",
      "outputs": [
        {
          "name": "",
          "type": "address"
        }
      ],
      "payable": false,
      "stateMutability": "view",
      "type": "function",
      "signature": "0xa960f05b"
    },
    {
      "constant": true,
      "inputs": [
        {
          "name": "gameId",
          "type": "uint256"
        }
      ],
      "name": "getRunning",
      "outputs": [
        {
          "name": "",
          "type": "bool"
        }
      ],
      "payable": false,
      "stateMutability": "view",
      "type": "function",
      "signature": "0xc95066d8"
    },
    {
      "constant": true,
      "inputs": [],
      "name": "getMaxMoveTimeout",
      "outputs": [
        {
          "name": "",
          "type": "uint256"
        }
      ],
      "payable": false,
      "stateMutability": "pure",
      "type": "function",
      "signature": "0xdabf0edb"
    },
    {
      "inputs": [],
      "payable": false,
      "stateMutability": "nonpayable",
      "type": "constructor",
      "signature": "constructor"
    },
    {
      "payable": false,
      "stateMutability": "nonpayable",
      "type": "fallback"
    },
    {
      "anonymous": false,
      "inputs": [
        {
          "indexed": false,
          "name": "gameId",
          "type": "uint256"
        },
        {
          "indexed": false,
          "name": "exclusive",
          "type": "bool"
        }
      ],
      "name": "logGameInitialized",
      "type": "event",
      "signature": "0x3e004982d0718a79f3a35e4bdf21d460d31e844b8df896563aa195fd8f39c2b4"
    },
    {
      "anonymous": false,
      "inputs": [
        {
          "indexed": false,
          "name": "gameId",
          "type": "uint256"
        }
      ],
      "name": "logGameStarted",
      "type": "event",
      "signature": "0xb8224041c758d3060a116b5d721f236d52f8169ad9f0306c5d14d60bb043ac9e"
    },
    {
      "anonymous": false,
      "inputs": [
        {
          "indexed": false,
          "name": "gameId",
          "type": "uint256"
        },
        {
          "indexed": false,
          "name": "who",
          "type": "uint8"
        },
        {
          "indexed": false,
          "name": "position",
          "type": "uint8"
        }
      ],
      "name": "logGameMoveMade",
      "type": "event",
      "signature": "0xcb9cc8b835c561cf3bd56372dc04c065670526616c2ea14020148b21d1823b7f"
    },
    {
      "anonymous": false,
      "inputs": [
        {
          "indexed": false,
          "name": "gameId",
          "type": "uint256"
        }
      ],
      "name": "logGameCanceled",
      "type": "event",
      "signature": "0x51293de05a98b6c08794e8015aede75c44989142969825f8609ad676f134de63"
    },
    {
      "anonymous": false,
      "inputs": [
        {
          "indexed": false,
          "name": "gameId",
          "type": "uint256"
        },
        {
          "indexed": false,
          "name": "winner",
          "type": "address"
        }
      ],
      "name": "logGameEnd",
      "type": "event",
      "signature": "0x2799f7db9b662090ba734216b411a1786edb43fd4d384f1eb7f332e824347bf9"
    },
    {
      "constant": false,
      "inputs": [
        {
          "name": "gameId",
          "type": "uint256"
        }
      ],
      "name": "withdraw",
      "outputs": [],
      "payable": false,
      "stateMutability": "nonpayable",
      "type": "function",
      "signature": "0x2e1a7d4d"
    },
    {
      "constant": false,
      "inputs": [],
      "name": "newGame",
      "outputs": [
        {
          "name": "",
          "type": "uint256"
        }
      ],
      "payable": true,
      "stateMutability": "payable",
      "type": "function",
      "signature": "0x7d03f5f3"
    },
    {
      "constant": false,
      "inputs": [
        {
          "name": "playerTwo",
          "type": "address"
        }
      ],
      "name": "newRestrictedGame",
      "outputs": [
        {
          "name": "",
          "type": "uint256"
        }
      ],
      "payable": true,
      "stateMutability": "payable",
      "type": "function",
      "signature": "0x944bb4f9"
    },
    {
      "constant": false,
      "inputs": [
        {
          "name": "gameId",
          "type": "uint256"
        }
      ],
      "name": "joinGame",
      "outputs": [],
      "payable": true,
      "stateMutability": "payable",
      "type": "function",
      "signature": "0xefaa55a0"
    },
    {
      "constant": false,
      "inputs": [
        {
          "name": "gameId",
          "type": "uint256"
        }
      ],
      "name": "claimTimeoutVictory",
      "outputs": [],
      "payable": false,
      "stateMutability": "nonpayable",
      "type": "function",
      "signature": "0xeff53a69"
    },
    {
      "constant": false,
      "inputs": [
        {
          "name": "gameId",
          "type": "uint256"
        },
        {
          "name": "moveToMake",
          "type": "uint8"
        },
        {
          "name": "claim",
          "type": "uint8[4]"
        }
      ],
      "name": "makeMoveAndClaimVictory",
      "outputs": [],
      "payable": false,
      "stateMutability": "nonpayable",
      "type": "function",
      "signature": "0x224bbbac"
    },
    {
      "constant": false,
      "inputs": [
        {
          "name": "gameId",
          "type": "uint256"
        },
        {
          "name": "position",
          "type": "uint8"
        }
      ],
      "name": "makeMove",
      "outputs": [],
      "payable": false,
      "stateMutability": "nonpayable",
      "type": "function",
      "signature": "0x7fd6f7c4"
    },
    {
      "constant": false,
      "inputs": [
        {
          "name": "gameId",
          "type": "uint256"
        }
      ],
      "name": "giveUp",
      "outputs": [],
      "payable": false,
      "stateMutability": "nonpayable",
      "type": "function",
      "signature": "0x22671fe9"
    },
    {
      "constant": true,
      "inputs": [
        {
          "name": "gameId",
          "type": "uint256"
        },
        {
          "name": "who",
          "type": "uint8"
        },
        {
          "name": "moves",
          "type": "uint8[4]"
        }
      ],
      "name": "checkHasWon",
      "outputs": [
        {
          "name": "",
          "type": "bool"
        }
      ],
      "payable": false,
      "stateMutability": "view",
      "type": "function",
      "signature": "0xbfd2b628"
    },
    {
      "constant": false,
      "inputs": [
        {
          "name": "gameId",
          "type": "uint256"
        }
      ],
      "name": "cancelCreatedGame",
      "outputs": [],
      "payable": false,
      "stateMutability": "nonpayable",
      "type": "function",
      "signature": "0xb153ac55"
    }
  ],
  "bytecode": "0x608060405234801561001057600080fd5b50612637806100206000396000f3fe608060405260043610610138576000357c0100000000000000000000000000000000000000000000000000000000900480630628b6ba1461014a5780630852799114610199578063224bbbac146101e857806322671fe91461023a57806326638631146102755780632e1a7d4d146102d25780633c1d93bd1461030d5780633d412d0f146103385780634129b2c9146103b357806345e09e541461042e57806375d1a8bc146104a557806379cf1c9d146104d05780637d03f5f3146104fb5780637fd6f7c414610519578063944bb4f91461056157806397ec23cb146105b9578063a33d1cae14610608578063a960f05b14610657578063b153ac55146106d2578063bfd2b6281461070d578063c95066d8146107ae578063dabf0edb14610801578063efaa55a01461082c578063eff53a691461085a575b34801561014457600080fd5b50600080fd5b34801561015657600080fd5b506101836004803603602081101561016d57600080fd5b8101908080359060200190929190505050610895565b6040518082815260200191505060405180910390f35b3480156101a557600080fd5b506101d2600480360360208110156101bc57600080fd5b8101908080359060200190929190505050610927565b6040518082815260200191505060405180910390f35b3480156101f457600080fd5b50610238600480360360c081101561020b57600080fd5b8101908080359060200190929190803560ff169060200190929190806080019091929192905050506109b9565b005b34801561024657600080fd5b506102736004803603602081101561025d57600080fd5b8101908080359060200190929190505050610acd565b005b34801561028157600080fd5b506102ae6004803603602081101561029857600080fd5b8101908080359060200190929190505050610d33565b604051808260028111156102be57fe5b60ff16815260200191505060405180910390f35b3480156102de57600080fd5b5061030b600480360360208110156102f557600080fd5b8101908080359060200190929190505050610dd2565b005b34801561031957600080fd5b50610322610f28565b6040518082815260200191505060405180910390f35b34801561034457600080fd5b506103716004803603602081101561035b57600080fd5b8101908080359060200190929190505050610f32565b604051808273ffffffffffffffffffffffffffffffffffffffff1673ffffffffffffffffffffffffffffffffffffffff16815260200191505060405180910390f35b3480156103bf57600080fd5b506103ec600480360360208110156103d657600080fd5b8101908080359060200190929190505050610fe4565b604051808273ffffffffffffffffffffffffffffffffffffffff1673ffffffffffffffffffffffffffffffffffffffff16815260200191505060405180910390f35b34801561043a57600080fd5b506104676004803603602081101561045157600080fd5b8101908080359060200190929190505050611096565b6040518082602a60200280838360005b83811015610492578082015181840152602081019050610477565b5050505090500191505060405180910390f35b3480156104b157600080fd5b506104ba611197565b6040518082815260200191505060405180910390f35b3480156104dc57600080fd5b506104e56111a1565b6040518082815260200191505060405180910390f35b61050361137b565b6040518082815260200191505060405180910390f35b34801561052557600080fd5b5061055f6004803603604081101561053c57600080fd5b8101908080359060200190929190803560ff169060200190929190505050611398565b005b6105a36004803603602081101561057757600080fd5b81019080803573ffffffffffffffffffffffffffffffffffffffff169060200190929190505050611692565b6040518082815260200191505060405180910390f35b3480156105c557600080fd5b506105f2600480360360208110156105dc57600080fd5b810190808035906020019092919050505061176f565b6040518082815260200191505060405180910390f35b34801561061457600080fd5b506106416004803603602081101561062b57600080fd5b8101908080359060200190929190505050611801565b6040518082815260200191505060405180910390f35b34801561066357600080fd5b506106906004803603602081101561067a57600080fd5b8101908080359060200190929190505050611893565b604051808273ffffffffffffffffffffffffffffffffffffffff1673ffffffffffffffffffffffffffffffffffffffff16815260200191505060405180910390f35b3480156106de57600080fd5b5061070b600480360360208110156106f557600080fd5b8101908080359060200190929190505050611945565b005b34801561071957600080fd5b50610794600480360360c081101561073057600080fd5b8101908080359060200190929190803560ff16906020019092919080608001906004806020026040519081016040528092919082600460200280828437600081840152601f19601f8201169050808301925050505050509192919290505050611b11565b604051808215151515815260200191505060405180910390f35b3480156107ba57600080fd5b506107e7600480360360208110156107d157600080fd5b8101908080359060200190929190505050611dcf565b604051808215151515815260200191505060405180910390f35b34801561080d57600080fd5b50610816611e6e565b6040518082815260200191505060405180910390f35b6108586004803603602081101561084257600080fd5b8101908080359060200190929190505050611e78565b005b34801561086657600080fd5b506108936004803603602081101561087d57600080fd5b810190808035906020019092919050505061216a565b005b600081600073ffffffffffffffffffffffffffffffffffffffff1660008083815260200190815260200160002060040160019054906101000a900473ffffffffffffffffffffffffffffffffffffffff1673ffffffffffffffffffffffffffffffffffffffff161415151561090957600080fd5b60008084815260200190815260200160002060020154915050919050565b600081600073ffffffffffffffffffffffffffffffffffffffff1660008083815260200190815260200160002060040160019054906101000a900473ffffffffffffffffffffffffffffffffffffffff1673ffffffffffffffffffffffffffffffffffffffff161415151561099b57600080fd5b60008084815260200190815260200160002060000154915050919050565b826109c5816001612220565b73ffffffffffffffffffffffffffffffffffffffff163373ffffffffffffffffffffffffffffffffffffffff161415156109fe57600080fd5b8360008082815260200190815260200160002060060160159054906101000a900460ff161515610a2d57600080fd5b600080600087815260200190815260200160002060040160009054906101000a900460ff1690506000610a61876001612220565b9050610a6d8787611398565b610aaf8783876004806020026040519081016040528092919082600460200280828437600081840152601f19601f820116905080830192505050505050611b11565b1515610aba57600080fd5b610ac48782612373565b50505050505050565b8060008082815260200190815260200160002060040160019054906101000a900473ffffffffffffffffffffffffffffffffffffffff1673ffffffffffffffffffffffffffffffffffffffff163373ffffffffffffffffffffffffffffffffffffffff161480610b9d575060008082815260200190815260200160002060050160009054906101000a900473ffffffffffffffffffffffffffffffffffffffff1673ffffffffffffffffffffffffffffffffffffffff163373ffffffffffffffffffffffffffffffffffffffff16145b1515610ba857600080fd5b8160008082815260200190815260200160002060060160159054906101000a900460ff161515610bd757600080fd5b60008084815260200190815260200160002060040160019054906101000a900473ffffffffffffffffffffffffffffffffffffffff1673ffffffffffffffffffffffffffffffffffffffff163373ffffffffffffffffffffffffffffffffffffffff161415610c8457610c7f8360008086815260200190815260200160002060050160009054906101000a900473ffffffffffffffffffffffffffffffffffffffff16612373565b610d2e565b60008084815260200190815260200160002060050160009054906101000a900473ffffffffffffffffffffffffffffffffffffffff1673ffffffffffffffffffffffffffffffffffffffff163373ffffffffffffffffffffffffffffffffffffffff161415610d2d57610d2c8360008086815260200190815260200160002060040160019054906101000a900473ffffffffffffffffffffffffffffffffffffffff16612373565b5b5b505050565b600081600073ffffffffffffffffffffffffffffffffffffffff1660008083815260200190815260200160002060040160019054906101000a900473ffffffffffffffffffffffffffffffffffffffff1673ffffffffffffffffffffffffffffffffffffffff1614151515610da757600080fd5b60008084815260200190815260200160002060040160009054906101000a900460ff16915050919050565b60008082815260200190815260200160002060060160159054906101000a900460ff16151560001515141515610e0757600080fd5b60008082815260200190815260200160002060060160009054906101000a900473ffffffffffffffffffffffffffffffffffffffff1673ffffffffffffffffffffffffffffffffffffffff163373ffffffffffffffffffffffffffffffffffffffff16141515610e7657600080fd5b600080600083815260200190815260200160002060010154600080848152602001908152602001600020600001540190506000806000848152602001908152602001600020600001819055506000806000848152602001908152602001600020600101819055503373ffffffffffffffffffffffffffffffffffffffff166108fc829081150290604051600060405180830381858888f19350505050158015610f23573d6000803e3d6000fd5b505050565b6000600154905090565b600081600073ffffffffffffffffffffffffffffffffffffffff1660008083815260200190815260200160002060040160019054906101000a900473ffffffffffffffffffffffffffffffffffffffff1673ffffffffffffffffffffffffffffffffffffffff1614151515610fa657600080fd5b60008084815260200190815260200160002060050160009054906101000a900473ffffffffffffffffffffffffffffffffffffffff16915050919050565b600081600073ffffffffffffffffffffffffffffffffffffffff1660008083815260200190815260200160002060040160019054906101000a900473ffffffffffffffffffffffffffffffffffffffff1673ffffffffffffffffffffffffffffffffffffffff161415151561105857600080fd5b60008084815260200190815260200160002060060160009054906101000a900473ffffffffffffffffffffffffffffffffffffffff16915050919050565b61109e6125e7565b81600073ffffffffffffffffffffffffffffffffffffffff1660008083815260200190815260200160002060040160019054906101000a900473ffffffffffffffffffffffffffffffffffffffff1673ffffffffffffffffffffffffffffffffffffffff161415151561111057600080fd5b600080848152602001908152602001600020600701602a806020026040519081016040528092919082602a801561118a576020028201916000905b82829054906101000a900460ff16600281111561116457fe5b8152602001906001019060208260000104928301926001038202915080841161114b5790505b5050505050915050919050565b6000610708905090565b600080600073ffffffffffffffffffffffffffffffffffffffff1660008083815260200190815260200160002060040160019054906101000a900473ffffffffffffffffffffffffffffffffffffffff1673ffffffffffffffffffffffffffffffffffffffff161415151561121557600080fd5b60008090505b60015481111515611308576000151560008083815260200190815260200160002060060160159054906101000a900460ff1615151480156112bd5750600073ffffffffffffffffffffffffffffffffffffffff1660008083815260200190815260200160002060060160009054906101000a900473ffffffffffffffffffffffffffffffffffffffff1673ffffffffffffffffffffffffffffffffffffffff16145b80156112ef57506000151560008083815260200190815260200160002060060160149054906101000a900460ff161515145b156112fd5780925050611377565b80600101905061121b565b506040517f08c379a000000000000000000000000000000000000000000000000000000000815260040180806020018281038252600d8152602001807f6e6f206f70656e2067616d65730000000000000000000000000000000000000081525060200191505060405180910390fd5b5090565b600080611386612464565b90506113918161247c565b8091505090565b816113a4816001612220565b73ffffffffffffffffffffffffffffffffffffffff163373ffffffffffffffffffffffffffffffffffffffff161415156113dd57600080fd5b8260008082815260200190815260200160002060060160159054906101000a900460ff16151561140c57600080fd5b83610e1060008083815260200190815260200160002060020154014210151561143457600080fd5b600080600087815260200190815260200160002060040160009054906101000a900460ff16905060008560ff1610158015611473575060298560ff1611155b151561147e57600080fd5b6000600281111561148b57fe5b6000808881526020019081526020016000206007018660ff16602a811015156114b057fe5b602091828204019190069054906101000a900460ff1660028111156114d157fe5b1415156114dd57600080fd5b60078560ff1610151561154e57600060028111156114f757fe5b6000808881526020019081526020016000206007016007870360ff16602a8110151561151f57fe5b602091828204019190069054906101000a900460ff16600281111561154057fe5b1415151561154d57600080fd5b5b806000808881526020019081526020016000206007018660ff16602a8110151561157457fe5b602091828204019190066101000a81548160ff0219169083600281111561159757fe5b0217905550600160028111156115a957fe5b8160028111156115b557fe5b14156115f757600260008088815260200190815260200160002060040160006101000a81548160ff021916908360028111156115ed57fe5b021790555061162f565b600160008088815260200190815260200160002060040160006101000a81548160ff0219169083600281111561162957fe5b02179055505b7fcb9cc8b835c561cf3bd56372dc04c065670526616c2ea14020148b21d1823b7f8682876040518084815260200183600281111561166957fe5b60ff1681526020018260ff1660ff168152602001935050505060405180910390a1505050505050565b60003373ffffffffffffffffffffffffffffffffffffffff168273ffffffffffffffffffffffffffffffffffffffff16141515156116cf57600080fd5b60006116d9612464565b9050600160008083815260200190815260200160002060060160146101000a81548160ff0219169083151502179055508260008083815260200190815260200160002060050160006101000a81548173ffffffffffffffffffffffffffffffffffffffff021916908373ffffffffffffffffffffffffffffffffffffffff1602179055506117668161247c565b80915050919050565b600081600073ffffffffffffffffffffffffffffffffffffffff1660008083815260200190815260200160002060040160019054906101000a900473ffffffffffffffffffffffffffffffffffffffff1673ffffffffffffffffffffffffffffffffffffffff16141515156117e357600080fd5b60008084815260200190815260200160002060030154915050919050565b600081600073ffffffffffffffffffffffffffffffffffffffff1660008083815260200190815260200160002060040160019054906101000a900473ffffffffffffffffffffffffffffffffffffffff1673ffffffffffffffffffffffffffffffffffffffff161415151561187557600080fd5b60008084815260200190815260200160002060010154915050919050565b600081600073ffffffffffffffffffffffffffffffffffffffff1660008083815260200190815260200160002060040160019054906101000a900473ffffffffffffffffffffffffffffffffffffffff1673ffffffffffffffffffffffffffffffffffffffff161415151561190757600080fd5b60008084815260200190815260200160002060040160019054906101000a900473ffffffffffffffffffffffffffffffffffffffff16915050919050565b80600073ffffffffffffffffffffffffffffffffffffffff1660008083815260200190815260200160002060040160019054906101000a900473ffffffffffffffffffffffffffffffffffffffff1673ffffffffffffffffffffffffffffffffffffffff16141515156119b757600080fd5b8160008082815260200190815260200160002060060160159054906101000a900460ff161515156119e757600080fd5b82610708600080838152602001908152602001600020600301540142111515611a0f57600080fd5b8360008082815260200190815260200160002060040160019054906101000a900473ffffffffffffffffffffffffffffffffffffffff1673ffffffffffffffffffffffffffffffffffffffff163373ffffffffffffffffffffffffffffffffffffffff16141515611a7f57600080fd5b3360008087815260200190815260200160002060060160006101000a81548173ffffffffffffffffffffffffffffffffffffffff021916908373ffffffffffffffffffffffffffffffffffffffff1602179055507f51293de05a98b6c08794e8015aede75c44989142969825f8609ad676f134de63856040518082815260200191505060405180910390a15050505050565b600080600090505b60048160ff161015611bf2576000838260ff16600481101515611b3857fe5b602002015160ff1610158015611b6757506029838260ff16600481101515611b5c57fe5b602002015160ff1611155b1515611b7257600080fd5b836002811115611b7e57fe5b600080878152602001908152602001600020600701848360ff16600481101515611ba457fe5b602002015160ff16602a81101515611bb857fe5b602091828204019190069054906101000a900460ff166002811115611bd957fe5b141515611be557600080fd5b8080600101915050611b19565b50816001600481101515611c0257fe5b602002015160ff16826000600481101515611c1957fe5b602002015160ff16101515611c2d57600080fd5b6000826000600481101515611c3e57fe5b6020020151836001600481101515611c5257fe5b60200201510390508060ff16836001600481101515611c6d57fe5b6020020151846002600481101515611c8157fe5b60200201510360ff16148015611cc457508060ff16836002600481101515611ca557fe5b6020020151846003600481101515611cb957fe5b60200201510360ff16145b1515611ccf57600080fd5b60068160ff161415611d38576007836000600481101515611cec57fe5b602002015160ff16811515611cfd57fe5b0660ff166007846003600481101515611d1257fe5b602002015160ff16811515611d2357fe5b0660ff16101515611d3357600080fd5b611dc3565b60018160ff161480611d4d575060088160ff16145b15611daf576007836003600481101515611d6357fe5b602002015160ff16811515611d7457fe5b0660ff166007846000600481101515611d8957fe5b602002015160ff16811515611d9a57fe5b0660ff16101515611daa57600080fd5b611dc2565b60078160ff16141515611dc157600080fd5b5b5b60019150509392505050565b600081600073ffffffffffffffffffffffffffffffffffffffff1660008083815260200190815260200160002060040160019054906101000a900473ffffffffffffffffffffffffffffffffffffffff1673ffffffffffffffffffffffffffffffffffffffff1614151515611e4357600080fd5b60008084815260200190815260200160002060060160159054906101000a900460ff16915050919050565b6000610e10905090565b80600073ffffffffffffffffffffffffffffffffffffffff1660008083815260200190815260200160002060040160019054906101000a900473ffffffffffffffffffffffffffffffffffffffff1673ffffffffffffffffffffffffffffffffffffffff1614151515611eea57600080fd5b8160008082815260200190815260200160002060060160159054906101000a900460ff16151515611f1a57600080fd5b3373ffffffffffffffffffffffffffffffffffffffff1660008085815260200190815260200160002060040160019054906101000a900473ffffffffffffffffffffffffffffffffffffffff1673ffffffffffffffffffffffffffffffffffffffff1614151515611f8a57600080fd5b600034141580611fb0575060008060008581526020019081526020016000206000015414155b15611fda57600080848152602001908152602001600020600001543414151515611fd957600080fd5b5b60008084815260200190815260200160002060060160149054906101000a900460ff1615612076573373ffffffffffffffffffffffffffffffffffffffff1660008085815260200190815260200160002060050160009054906101000a900473ffffffffffffffffffffffffffffffffffffffff1673ffffffffffffffffffffffffffffffffffffffff1614151561207157600080fd5b6120cb565b3360008085815260200190815260200160002060050160006101000a81548173ffffffffffffffffffffffffffffffffffffffff021916908373ffffffffffffffffffffffffffffffffffffffff1602179055505b3460008085815260200190815260200160002060000154111561212457600160008085815260200190815260200160002060040160006101000a81548160ff0219169083600281111561211a57fe5b021790555061215c565b600260008085815260200190815260200160002060040160006101000a81548160ff0219169083600281111561215657fe5b02179055505b6121658361254b565b505050565b80610e1060008083815260200190815260200160002060020154014211151561219257600080fd5b8161219e816000612220565b73ffffffffffffffffffffffffffffffffffffffff163373ffffffffffffffffffffffffffffffffffffffff161415156121d757600080fd5b8260008082815260200190815260200160002060060160159054906101000a900460ff16151561220657600080fd5b61221a84612215866000612220565b612373565b50505050565b60008060008085815260200190815260200160002060040160009054906101000a900460ff1690506001600281111561225557fe5b81600281111561226157fe5b14801561226b5750825b80612295575060028081111561227d57fe5b81600281111561228957fe5b148015612294575082155b5b156122d85760008085815260200190815260200160002060040160019054906101000a900473ffffffffffffffffffffffffffffffffffffffff1691505061236d565b600160028111156122e557fe5b8160028111156122f157fe5b1480156122fc575082155b80612325575060028081111561230e57fe5b81600281111561231a57fe5b1480156123245750825b5b156123685760008085815260200190815260200160002060050160009054906101000a900473ffffffffffffffffffffffffffffffffffffffff1691505061236d565b600080fd5b92915050565b600080600084815260200190815260200160002060060160156101000a81548160ff0219169083151502179055508060008084815260200190815260200160002060060160006101000a81548173ffffffffffffffffffffffffffffffffffffffff021916908373ffffffffffffffffffffffffffffffffffffffff1602179055507f2799f7db9b662090ba734216b411a1786edb43fd4d384f1eb7f332e824347bf98282604051808381526020018273ffffffffffffffffffffffffffffffffffffffff1673ffffffffffffffffffffffffffffffffffffffff1681526020019250505060405180910390a15050565b60006001600081548092919060010191905055905090565b34600080838152602001908152602001600020600001819055503360008083815260200190815260200160002060040160016101000a81548173ffffffffffffffffffffffffffffffffffffffff021916908373ffffffffffffffffffffffffffffffffffffffff16021790555042600080838152602001908152602001600020600301819055507f3e004982d0718a79f3a35e4bdf21d460d31e844b8df896563aa195fd8f39c2b481600060405180838152602001821515151581526020019250505060405180910390a150565b3460008083815260200190815260200160002060010181905550600160008083815260200190815260200160002060060160156101000a81548160ff02191690831515021790555042600080838152602001908152602001600020600201819055507fb8224041c758d3060a116b5d721f236d52f8169ad9f0306c5d14d60bb043ac9e816040518082815260200191505060405180910390a150565b61054060405190810160405280602a9060208202803883398082019150509050509056fea165627a7a72305820e5b51a01beb41c24cca28b0fd83e476d206b9bf5e4fad23d8a105c815f62b4390029",
  "source": "pragma solidity >=0.4.23 <0.6.0;\n\nimport \"./FourConnectCalls.sol\";\n\n/// @title Contract for a Connect Four Game\n/// @author Marius Reimer\n/// @notice \n/// @dev This is the core contract\ncontract FourConnect is FourConnectCalls {\n    \n    constructor() public {\n    }\n\n    /// @notice Fallback method. Sending ether to this contract \n    /// will cause expection, since 'payable' is missing. \n    function() external {\n        revert();\n    }\n\n    /// @notice The winner may withdraw the amount\n    /// @param gameId The id of the game\n    function withdraw(uint gameId) \n        public {\n        require(false == games[gameId].running);\n        require(msg.sender == games[gameId].winner);\n\n        uint amount = games[gameId].bidPlayerOne + games[gameId].bidPlayerTwo;\n        games[gameId].bidPlayerOne = 0;\n        games[gameId].bidPlayerTwo = 0;\n        // Zero the pending refund before\n        // sending to prevent re-entrancy attacks\n        msg.sender.transfer(amount);\n    }\n\n    /// @notice Creates a non restricted game (anyone can join)\n    function newGame() \n        external \n        payable\n        returns(uint) {\n        uint gameId = nextUID();\n        internalGameInit(gameId);\n        return gameId;\n    }\n\n    /// @notice Creates a restricted game (only the specified player can join)\n    /// @param playerTwo The second player to join this game\n    function newRestrictedGame(address playerTwo) \n        external \n        payable\n        returns(uint) {\n        require(playerTwo != msg.sender);\n        uint gameId = nextUID();\n        games[gameId].exclusive = true;\n        games[gameId].playerTwo = playerTwo;\n        internalGameInit(gameId);\n        return gameId;\n    }\n\n    /// @notice Join a specific game\n    /// @param gameId The id of the game\n    function joinGame(uint gameId) \n        external \n        payable\n        onlyWhenGameExists(gameId)\n        onlyWhenNotRunning(gameId) {\n        require(games[gameId].playerOne != msg.sender);\n\n        // if a game without bid exists, do no check, otherwise they must not be equal\n        if (msg.value != 0 || games[gameId].bidPlayerOne != 0) {\n            require(msg.value != games[gameId].bidPlayerOne);\n        }\n\n        if (games[gameId].exclusive) {\n            require(games[gameId].playerTwo == msg.sender);\n        } else {\n            games[gameId].playerTwo = msg.sender;\n        }\n\n        // select first player depending on the higher bid price\n        if (games[gameId].bidPlayerOne > msg.value) {\n            games[gameId].currentPlayer = Player.ONE;\n        } else {\n            games[gameId].currentPlayer = Player.TWO;\n        }\n\n        internalGameStart(gameId);\n    }\n\n    /// @notice Join a specific game\n    /// @param gameId The id of the game\n    function claimTimeoutVictory(uint gameId)\n        external\n        onlyAfterTimeout(gameId)\n        onlyInactivePlayer(gameId)\n        onlyWhenRunning(gameId)\n    {\n        // game ends with inactive player\n        internalGameEnd(gameId, getPlayerAddress(gameId, false));\n    }\n\n    //The pieces in toClaim must be sorted positions, least to greatest\n    function makeMoveAndClaimVictory(uint gameId, uint8 moveToMake, uint8[4] calldata claim)\n        external\n        onlyActivePlayer(gameId)\n        onlyWhenRunning(gameId)\n    {\n        Player player = games[gameId].currentPlayer;\n        // get active player\n        address playerAddress = getPlayerAddress(gameId, true);\n\n        makeMove(gameId, moveToMake);\n\n        require(checkHasWon(gameId, player, claim));\n\n        // game ends with active player\n        internalGameEnd(gameId, playerAddress);\n    }\n\n    /// @notice Checks and persists the move on the board\n    /// @param gameId The id of the game\n    /// @param position Board position for the desired move\n    function makeMove(uint gameId, uint8 position)\n        public\n        onlyActivePlayer(gameId)\n        onlyWhenRunning(gameId)\n        onlyInTimeout(gameId)\n    {\n        Player player = games[gameId].currentPlayer;\n\n        require(position >= 0 && position <= 41);\n        require(games[gameId].board[position] == Player.NONE);\n\n        if (position >= 7){\n            require(games[gameId].board[position - 7] != Player.NONE);\n        }\n\n        games[gameId].board[position] = player;\n\n        if (player == Player.ONE) {\n            games[gameId].currentPlayer = Player.TWO;\n        } else {\n            games[gameId].currentPlayer = Player.ONE;\n        }\n\n        emit logGameMoveMade(gameId, player, position);\n    }\n\n    /// @notice Give players the possibilty to give up at any time, so that the other player wins\n    /// @param gameId The id of the game\n    function giveUp(uint gameId) \n        external\n        onlyPlayers(gameId)\n        onlyWhenRunning(gameId) {\n        if (msg.sender == games[gameId].playerOne) {\n            internalGameEnd(gameId, games[gameId].playerTwo);\n        } else if (msg.sender == games[gameId].playerTwo) {\n            internalGameEnd(gameId, games[gameId].playerOne);\n        }\n    } \n\n    /// @notice Check if claimed moves are a valid win\n    /// @param gameId The id of the game\n    /// @param who The Player who claimed the win\n    /// @param moves Set of positions claimed for the win\n    /// @return true if won, else exception is thrown\n    function checkHasWon(uint gameId, Player who, uint8[4] memory moves) \n        public \n        view \n        returns(bool) {\n        for (uint8 i = 0; i < 4; i++){\n            require(moves[i] >= 0 && moves[i] <= 41);\n            require(games[gameId].board[moves[i]] == who);\n        }\n\n        /*\n        35\t36\t37\t38\t39\t40\t41\n        28\t29\t30\t31\t32\t33\t34\n        21\t22\t23\t24\t25\t26\t27\n        14\t15\t16\t17\t18\t19\t20\n        7\t8\t9\t10\t11\t12\t13\n        0\t1\t2\t3\t4\t5\t6\n        */\n\n\n        \n\n        // All moves must be in increasing order and have the same distance to each other\n        require(moves[0] < moves[1]);\n\n        uint8 diff = moves[1] - moves[0];\n\n        require(\n            moves[2] - moves[1] == diff &&\n            moves[3] - moves[2] == diff);\n\n        // Check if moves are arranged correctly, because relying to the diff alone\n        // is not enough (example: moves in 2, 8, 14, 20 are not valid)\n        if (diff == 6) {\n            // diagonal-left claim. therefore:\n            // last id must be further to the left than the first\n            require(moves[3] % 7 < moves[0] % 7);\n        } else if (diff == 1 || diff == 8) {\n            // horizontal or diagonal-right claim. therefore:\n            // last id must be further to the right than the first\n            require(moves[0] % 7 < moves[3] % 7);\n        } else if (diff != 7) {\n            // vertical moves do not need verification, since it happened in the foor loop\n            revert();\n        }\n\n        return true;\n    }\n\n    //If nobody has joined your game, you can cancel and get money back\n    function cancelCreatedGame(uint gameId)\n        external\n        onlyWhenGameExists(gameId)\n        onlyWhenNotRunning(gameId)\n        onlyAfterCreationTimeout(gameId)\n        onlyOwner(gameId) {\n        games[gameId].winner = msg.sender;\n\n        emit logGameCanceled(gameId);\n    }\n}",
  "sourcePath": "/Users/marius/d/mr/preact-fourconnect/solidity/contracts/FourConnect.sol",
  "compiler": {
    "name": "solc",
    "version": "0.5.1+commit.c8a2cb62.Emscripten.clang"
  },
  "schemaVersion": "3.0.1",
  "updatedAt": "2019-01-16T21:50:32.760Z",
  "devdoc": {
    "author": "Marius Reimer",
    "details": "This is the core contract",
    "methods": {
      "checkHasWon(uint256,uint8,uint8[4])": {
        "params": {
          "gameId": "The id of the game",
          "moves": "Set of positions claimed for the win",
          "who": "The Player who claimed the win"
        },
        "return": "true if won, else exception is thrown"
      },
      "claimTimeoutVictory(uint256)": {
        "params": {
          "gameId": "The id of the game"
        }
      },
      "giveUp(uint256)": {
        "params": {
          "gameId": "The id of the game"
        }
      },
      "joinGame(uint256)": {
        "params": {
          "gameId": "The id of the game"
        }
      },
      "makeMove(uint256,uint8)": {
        "params": {
          "gameId": "The id of the game",
          "position": "Board position for the desired move"
        }
      },
      "newRestrictedGame(address)": {
        "params": {
          "playerTwo": "The second player to join this game"
        }
      },
      "withdraw(uint256)": {
        "params": {
          "gameId": "The id of the game"
        }
      }
    },
    "title": "Contract for a Connect Four Game"
  },
  "userdoc": {
    "methods": {
      "checkHasWon(uint256,uint8,uint8[4])": {
        "notice": "Check if claimed moves are a valid win"
      },
      "claimTimeoutVictory(uint256)": {
        "notice": "Join a specific game"
      },
      "giveUp(uint256)": {
        "notice": "Give players the possibilty to give up at any time, so that the other player wins"
      },
      "joinGame(uint256)": {
        "notice": "Join a specific game"
      },
      "makeMove(uint256,uint8)": {
        "notice": "Checks and persists the move on the board"
      },
      "newGame()": {
        "notice": "Creates a non restricted game (anyone can join)"
      },
      "newRestrictedGame(address)": {
        "notice": "Creates a restricted game (only the specified player can join)"
      },
      "withdraw(uint256)": {
        "notice": "The winner may withdraw the amount"
      }
    }
  }
}