{
  "contractName": "FourConnectBase",
  "abi": [
    {
      "constant": false,
      "inputs": [],
      "name": "renounceOwnership",
      "outputs": [],
      "payable": false,
      "stateMutability": "nonpayable",
      "type": "function"
    },
    {
      "constant": true,
      "inputs": [],
      "name": "isContractOwner",
      "outputs": [
        {
          "name": "",
          "type": "bool"
        }
      ],
      "payable": false,
      "stateMutability": "view",
      "type": "function"
    },
    {
      "constant": true,
      "inputs": [],
      "name": "owner",
      "outputs": [
        {
          "name": "",
          "type": "address"
        }
      ],
      "payable": false,
      "stateMutability": "view",
      "type": "function"
    },
    {
      "constant": false,
      "inputs": [
        {
          "name": "newOwner",
          "type": "address"
        }
      ],
      "name": "transferOwnership",
      "outputs": [],
      "payable": false,
      "stateMutability": "nonpayable",
      "type": "function"
    },
    {
      "anonymous": false,
      "inputs": [
        {
          "indexed": false,
          "name": "gameId",
          "type": "uint256"
        },
        {
          "indexed": false,
          "name": "exclusive",
          "type": "bool"
        }
      ],
      "name": "logGameInitialized",
      "type": "event"
    },
    {
      "anonymous": false,
      "inputs": [
        {
          "indexed": false,
          "name": "gameId",
          "type": "uint256"
        }
      ],
      "name": "logGameStarted",
      "type": "event"
    },
    {
      "anonymous": false,
      "inputs": [
        {
          "indexed": false,
          "name": "gameId",
          "type": "uint256"
        },
        {
          "indexed": false,
          "name": "who",
          "type": "uint8"
        },
        {
          "indexed": false,
          "name": "position",
          "type": "uint8"
        }
      ],
      "name": "logGameMoveMade",
      "type": "event"
    },
    {
      "anonymous": false,
      "inputs": [
        {
          "indexed": false,
          "name": "gameId",
          "type": "uint256"
        }
      ],
      "name": "logGameCanceled",
      "type": "event"
    },
    {
      "anonymous": false,
      "inputs": [
        {
          "indexed": false,
          "name": "gameId",
          "type": "uint256"
        },
        {
          "indexed": false,
          "name": "winner",
          "type": "address"
        }
      ],
      "name": "logGameEnd",
      "type": "event"
    },
    {
      "anonymous": false,
      "inputs": [
        {
          "indexed": true,
          "name": "previousOwner",
          "type": "address"
        },
        {
          "indexed": true,
          "name": "newOwner",
          "type": "address"
        }
      ],
      "name": "OwnershipTransferred",
      "type": "event"
    }
  ],
  "bytecode": "0x6080604052336000806101000a81548173ffffffffffffffffffffffffffffffffffffffff021916908373ffffffffffffffffffffffffffffffffffffffff1602179055506000809054906101000a900473ffffffffffffffffffffffffffffffffffffffff1673ffffffffffffffffffffffffffffffffffffffff16600073ffffffffffffffffffffffffffffffffffffffff167f8be0079c531659141344cd1fd0a4f28419497f9722a3daafe3b4186f6b6457e060405160405180910390a36103bf806100cf6000396000f3fe608060405234801561001057600080fd5b5060043610610069576000357c010000000000000000000000000000000000000000000000000000000090048063715018a61461006e5780637f7dcdbf146100785780638da5cb5b1461009a578063f2fde38b146100e4575b600080fd5b610076610128565b005b6100806101fa565b604051808215151515815260200191505060405180910390f35b6100a2610251565b604051808273ffffffffffffffffffffffffffffffffffffffff1673ffffffffffffffffffffffffffffffffffffffff16815260200191505060405180910390f35b610126600480360360208110156100fa57600080fd5b81019080803573ffffffffffffffffffffffffffffffffffffffff16906020019092919050505061027a565b005b6101306101fa565b151561013b57600080fd5b600073ffffffffffffffffffffffffffffffffffffffff166000809054906101000a900473ffffffffffffffffffffffffffffffffffffffff1673ffffffffffffffffffffffffffffffffffffffff167f8be0079c531659141344cd1fd0a4f28419497f9722a3daafe3b4186f6b6457e060405160405180910390a360008060006101000a81548173ffffffffffffffffffffffffffffffffffffffff021916908373ffffffffffffffffffffffffffffffffffffffff160217905550565b60008060009054906101000a900473ffffffffffffffffffffffffffffffffffffffff1673ffffffffffffffffffffffffffffffffffffffff163373ffffffffffffffffffffffffffffffffffffffff1614905090565b60008060009054906101000a900473ffffffffffffffffffffffffffffffffffffffff16905090565b6102826101fa565b151561028d57600080fd5b61029681610299565b50565b600073ffffffffffffffffffffffffffffffffffffffff168173ffffffffffffffffffffffffffffffffffffffff16141515156102d557600080fd5b8073ffffffffffffffffffffffffffffffffffffffff166000809054906101000a900473ffffffffffffffffffffffffffffffffffffffff1673ffffffffffffffffffffffffffffffffffffffff167f8be0079c531659141344cd1fd0a4f28419497f9722a3daafe3b4186f6b6457e060405160405180910390a3806000806101000a81548173ffffffffffffffffffffffffffffffffffffffff021916908373ffffffffffffffffffffffffffffffffffffffff1602179055505056fea165627a7a72305820b4624768869cf4561506992da715bc90849f7bb62ac9be844137c1602a0c98df0029",
  "source": "pragma solidity ^0.5.2;\n\nimport \"./Ownable.sol\";\n\ncontract FourConnectBase is Ownable {\n\n    /*** EVENTS ***/\n\n    event logGameInitialized(uint gameId, bool exclusive);\n    event logGameStarted(uint gameId);\n    event logGameMoveMade(uint gameId, Player who, uint8 position);\n    event logGameCanceled(uint gameId);\n    event logGameEnd(uint gameId, address winner);\n\n    /*** DATA TYPES ***/\n\n    struct Game {\n        uint bidPlayerOne;\n        uint bidPlayerTwo;\n        uint lastTimePlayed;\n        uint creationTime;\n        Player currentPlayer;\n        address playerOne;\n        address playerTwo;\n        address winner;\n        bool exclusive;\n        bool running;\n\n        Player[42] board;\n    }\n\n    enum Player { NONE, ONE, TWO }\n\n    /*** CONSTANTS ***/\n\n    uint constant MAX_MOVE_TIMEOUT = 1 hours;\n    uint constant MAX_CREATION_TIMEOUT = 30 minutes;\n\n    /*** VARIABLES ***/\n\n    mapping (uint => Game) internal games;\n    mapping (address => uint[]) internal joinedGames;\n    \n    uint internal currentUID;\n\n    /*** INTERNAL METHODS AND HELPERS ***/\n\n    /// @notice Return the gameId and increment it\n    function nextUID() \n        internal \n        returns(uint) {\n        return currentUID++;\n    }\n\n    /// @notice Internal helper to initialize a game\n    /// @param gameId The id of the game\n    function internalGameInit(uint gameId) \n        internal {\n        games[gameId].bidPlayerOne = msg.value;\n        games[gameId].playerOne = msg.sender;\n        games[gameId].creationTime = now;\n        emit logGameInitialized(gameId, false);\n    }\n\n    /// @notice Internal helper to start/join a game\n    /// @param gameId The id of the game\n    function internalGameStart(uint gameId) \n        internal {\n        games[gameId].bidPlayerTwo = msg.value;\n        games[gameId].running = true;\n        games[gameId].lastTimePlayed = now;\n        emit logGameStarted(gameId);\n    }\n\n    /// @notice Internal helper to finish a game\n    /// @param gameId The id of the game\n    /// @param winner The address of the winner\n    function internalGameEnd(uint gameId, address winner) \n        internal {\n        games[gameId].running = false;\n        games[gameId].winner = winner;\n\n        emit logGameEnd(gameId, winner);\n    }\n\n    /// @notice Internal helper to get the address of the current active/inactive player\n    /// @param gameId The id of the game\n    /// @param active Active or Inactive player\n    function getPlayerAddress(uint gameId, bool active) \n        internal \n        view \n        returns(address) {\n        Player player = games[gameId].currentPlayer;\n\n        if (player == Player.ONE && active ||\n            player == Player.TWO && !active) {\n            return games[gameId].playerOne;\n        } else if (player == Player.ONE && !active ||\n            player == Player.TWO && active) {\n            return games[gameId].playerTwo;\n        } else {\n            revert();\n        }\n    }    \n}",
  "sourcePath": "/Users/marius/d/mr/preact-fourconnect/solidity/contracts/FourConnectBase.sol",
  "compiler": {
    "name": "solc",
    "version": "0.5.2+commit.1df8f40c.Emscripten.clang"
  },
  "schemaVersion": "3.0.1",
  "updatedAt": "2019-01-26T15:26:45.505Z",
  "devdoc": {
    "methods": {
      "isContractOwner()": {
        "return": "true if `msg.sender` is the owner of the contract."
      },
      "owner()": {
        "return": "the address of the owner."
      },
      "renounceOwnership()": {
        "details": "Allows the current owner to relinquish control of the contract."
      },
      "transferOwnership(address)": {
        "details": "Allows the current owner to transfer control of the contract to a newOwner.",
        "params": {
          "newOwner": "The address to transfer ownership to."
        }
      }
    }
  },
  "userdoc": {
    "methods": {
      "renounceOwnership()": {
        "notice": "Renouncing to ownership will leave the contract without an owner. It will not be possible to call the functions with the `onlyOwner` modifier anymore."
      }
    }
  }
}