{
  "contractName": "FourConnect",
  "abi": [
    {
      "constant": true,
      "inputs": [
        {
          "name": "gameId",
          "type": "uint256"
        }
      ],
      "name": "getLastTimePlayed",
      "outputs": [
        {
          "name": "",
          "type": "uint256"
        }
      ],
      "payable": false,
      "stateMutability": "view",
      "type": "function",
      "signature": "0x0628b6ba"
    },
    {
      "constant": true,
      "inputs": [
        {
          "name": "gameId",
          "type": "uint256"
        }
      ],
      "name": "getBidPlayerOne",
      "outputs": [
        {
          "name": "",
          "type": "uint256"
        }
      ],
      "payable": false,
      "stateMutability": "view",
      "type": "function",
      "signature": "0x08527991"
    },
    {
      "constant": true,
      "inputs": [
        {
          "name": "gameId",
          "type": "uint256"
        }
      ],
      "name": "getCurrentPlayer",
      "outputs": [
        {
          "name": "",
          "type": "uint8"
        }
      ],
      "payable": false,
      "stateMutability": "view",
      "type": "function",
      "signature": "0x26638631"
    },
    {
      "constant": true,
      "inputs": [],
      "name": "getCurrentUID",
      "outputs": [
        {
          "name": "",
          "type": "uint256"
        }
      ],
      "payable": false,
      "stateMutability": "view",
      "type": "function",
      "signature": "0x3c1d93bd"
    },
    {
      "constant": true,
      "inputs": [
        {
          "name": "gameId",
          "type": "uint256"
        }
      ],
      "name": "getPlayerTwo",
      "outputs": [
        {
          "name": "",
          "type": "address"
        }
      ],
      "payable": false,
      "stateMutability": "view",
      "type": "function",
      "signature": "0x3d412d0f"
    },
    {
      "constant": true,
      "inputs": [
        {
          "name": "player",
          "type": "address"
        }
      ],
      "name": "getPlayersIds",
      "outputs": [
        {
          "name": "",
          "type": "uint256[]"
        }
      ],
      "payable": false,
      "stateMutability": "view",
      "type": "function",
      "signature": "0x404cf099"
    },
    {
      "constant": true,
      "inputs": [
        {
          "name": "gameId",
          "type": "uint256"
        }
      ],
      "name": "getWinner",
      "outputs": [
        {
          "name": "",
          "type": "address"
        }
      ],
      "payable": false,
      "stateMutability": "view",
      "type": "function",
      "signature": "0x4129b2c9"
    },
    {
      "constant": true,
      "inputs": [
        {
          "name": "gameId",
          "type": "uint256"
        }
      ],
      "name": "getBoard",
      "outputs": [
        {
          "name": "",
          "type": "uint8[42]"
        }
      ],
      "payable": false,
      "stateMutability": "view",
      "type": "function",
      "signature": "0x45e09e54"
    },
    {
      "constant": false,
      "inputs": [],
      "name": "renounceOwnership",
      "outputs": [],
      "payable": false,
      "stateMutability": "nonpayable",
      "type": "function",
      "signature": "0x715018a6"
    },
    {
      "constant": true,
      "inputs": [],
      "name": "getMaxCreationTimeout",
      "outputs": [
        {
          "name": "",
          "type": "uint256"
        }
      ],
      "payable": false,
      "stateMutability": "pure",
      "type": "function",
      "signature": "0x75d1a8bc"
    },
    {
      "constant": true,
      "inputs": [],
      "name": "getOpenGameId",
      "outputs": [
        {
          "name": "",
          "type": "uint256"
        }
      ],
      "payable": false,
      "stateMutability": "view",
      "type": "function",
      "signature": "0x79cf1c9d"
    },
    {
      "constant": true,
      "inputs": [],
      "name": "isContractOwner",
      "outputs": [
        {
          "name": "",
          "type": "bool"
        }
      ],
      "payable": false,
      "stateMutability": "view",
      "type": "function",
      "signature": "0x7f7dcdbf"
    },
    {
      "constant": true,
      "inputs": [],
      "name": "owner",
      "outputs": [
        {
          "name": "",
          "type": "address"
        }
      ],
      "payable": false,
      "stateMutability": "view",
      "type": "function",
      "signature": "0x8da5cb5b"
    },
    {
      "constant": true,
      "inputs": [
        {
          "name": "gameId",
          "type": "uint256"
        }
      ],
      "name": "getCreationTime",
      "outputs": [
        {
          "name": "",
          "type": "uint256"
        }
      ],
      "payable": false,
      "stateMutability": "view",
      "type": "function",
      "signature": "0x97ec23cb"
    },
    {
      "constant": true,
      "inputs": [
        {
          "name": "gameId",
          "type": "uint256"
        }
      ],
      "name": "getBidPlayerTwo",
      "outputs": [
        {
          "name": "",
          "type": "uint256"
        }
      ],
      "payable": false,
      "stateMutability": "view",
      "type": "function",
      "signature": "0xa33d1cae"
    },
    {
      "constant": true,
      "inputs": [
        {
          "name": "gameId",
          "type": "uint256"
        }
      ],
      "name": "getPlayerOne",
      "outputs": [
        {
          "name": "",
          "type": "address"
        }
      ],
      "payable": false,
      "stateMutability": "view",
      "type": "function",
      "signature": "0xa960f05b"
    },
    {
      "constant": true,
      "inputs": [
        {
          "name": "gameId",
          "type": "uint256"
        }
      ],
      "name": "getRunning",
      "outputs": [
        {
          "name": "",
          "type": "bool"
        }
      ],
      "payable": false,
      "stateMutability": "view",
      "type": "function",
      "signature": "0xc95066d8"
    },
    {
      "constant": true,
      "inputs": [],
      "name": "getMaxMoveTimeout",
      "outputs": [
        {
          "name": "",
          "type": "uint256"
        }
      ],
      "payable": false,
      "stateMutability": "pure",
      "type": "function",
      "signature": "0xdabf0edb"
    },
    {
      "constant": false,
      "inputs": [
        {
          "name": "newOwner",
          "type": "address"
        }
      ],
      "name": "transferOwnership",
      "outputs": [],
      "payable": false,
      "stateMutability": "nonpayable",
      "type": "function",
      "signature": "0xf2fde38b"
    },
    {
      "inputs": [],
      "payable": false,
      "stateMutability": "nonpayable",
      "type": "constructor",
      "signature": "constructor"
    },
    {
      "payable": false,
      "stateMutability": "nonpayable",
      "type": "fallback"
    },
    {
      "anonymous": false,
      "inputs": [
        {
          "indexed": false,
          "name": "gameId",
          "type": "uint256"
        },
        {
          "indexed": false,
          "name": "exclusive",
          "type": "bool"
        }
      ],
      "name": "logGameInitialized",
      "type": "event",
      "signature": "0x3e004982d0718a79f3a35e4bdf21d460d31e844b8df896563aa195fd8f39c2b4"
    },
    {
      "anonymous": false,
      "inputs": [
        {
          "indexed": false,
          "name": "gameId",
          "type": "uint256"
        }
      ],
      "name": "logGameStarted",
      "type": "event",
      "signature": "0xb8224041c758d3060a116b5d721f236d52f8169ad9f0306c5d14d60bb043ac9e"
    },
    {
      "anonymous": false,
      "inputs": [
        {
          "indexed": false,
          "name": "gameId",
          "type": "uint256"
        },
        {
          "indexed": false,
          "name": "who",
          "type": "uint8"
        },
        {
          "indexed": false,
          "name": "position",
          "type": "uint8"
        }
      ],
      "name": "logGameMoveMade",
      "type": "event",
      "signature": "0xcb9cc8b835c561cf3bd56372dc04c065670526616c2ea14020148b21d1823b7f"
    },
    {
      "anonymous": false,
      "inputs": [
        {
          "indexed": false,
          "name": "gameId",
          "type": "uint256"
        }
      ],
      "name": "logGameCanceled",
      "type": "event",
      "signature": "0x51293de05a98b6c08794e8015aede75c44989142969825f8609ad676f134de63"
    },
    {
      "anonymous": false,
      "inputs": [
        {
          "indexed": false,
          "name": "gameId",
          "type": "uint256"
        },
        {
          "indexed": false,
          "name": "winner",
          "type": "address"
        }
      ],
      "name": "logGameEnd",
      "type": "event",
      "signature": "0x2799f7db9b662090ba734216b411a1786edb43fd4d384f1eb7f332e824347bf9"
    },
    {
      "anonymous": false,
      "inputs": [
        {
          "indexed": true,
          "name": "previousOwner",
          "type": "address"
        },
        {
          "indexed": true,
          "name": "newOwner",
          "type": "address"
        }
      ],
      "name": "OwnershipTransferred",
      "type": "event",
      "signature": "0x8be0079c531659141344cd1fd0a4f28419497f9722a3daafe3b4186f6b6457e0"
    },
    {
      "constant": false,
      "inputs": [
        {
          "name": "gameId",
          "type": "uint256"
        }
      ],
      "name": "withdraw",
      "outputs": [],
      "payable": false,
      "stateMutability": "nonpayable",
      "type": "function",
      "signature": "0x2e1a7d4d"
    },
    {
      "constant": false,
      "inputs": [],
      "name": "newGame",
      "outputs": [
        {
          "name": "",
          "type": "uint256"
        }
      ],
      "payable": true,
      "stateMutability": "payable",
      "type": "function",
      "signature": "0x7d03f5f3"
    },
    {
      "constant": false,
      "inputs": [
        {
          "name": "playerTwo",
          "type": "address"
        }
      ],
      "name": "newRestrictedGame",
      "outputs": [
        {
          "name": "",
          "type": "uint256"
        }
      ],
      "payable": true,
      "stateMutability": "payable",
      "type": "function",
      "signature": "0x944bb4f9"
    },
    {
      "constant": false,
      "inputs": [
        {
          "name": "gameId",
          "type": "uint256"
        }
      ],
      "name": "joinGame",
      "outputs": [],
      "payable": true,
      "stateMutability": "payable",
      "type": "function",
      "signature": "0xefaa55a0"
    },
    {
      "constant": false,
      "inputs": [
        {
          "name": "gameId",
          "type": "uint256"
        }
      ],
      "name": "claimTimeoutVictory",
      "outputs": [],
      "payable": false,
      "stateMutability": "nonpayable",
      "type": "function",
      "signature": "0xeff53a69"
    },
    {
      "constant": false,
      "inputs": [
        {
          "name": "gameId",
          "type": "uint256"
        },
        {
          "name": "moveToMake",
          "type": "uint8"
        },
        {
          "name": "claim",
          "type": "uint8[4]"
        }
      ],
      "name": "makeMoveAndClaimVictory",
      "outputs": [],
      "payable": false,
      "stateMutability": "nonpayable",
      "type": "function",
      "signature": "0x224bbbac"
    },
    {
      "constant": false,
      "inputs": [
        {
          "name": "gameId",
          "type": "uint256"
        },
        {
          "name": "position",
          "type": "uint8"
        }
      ],
      "name": "makeMove",
      "outputs": [],
      "payable": false,
      "stateMutability": "nonpayable",
      "type": "function",
      "signature": "0x7fd6f7c4"
    },
    {
      "constant": false,
      "inputs": [
        {
          "name": "gameId",
          "type": "uint256"
        }
      ],
      "name": "giveUp",
      "outputs": [],
      "payable": false,
      "stateMutability": "nonpayable",
      "type": "function",
      "signature": "0x22671fe9"
    },
    {
      "constant": true,
      "inputs": [
        {
          "name": "gameId",
          "type": "uint256"
        },
        {
          "name": "who",
          "type": "uint8"
        },
        {
          "name": "moves",
          "type": "uint8[4]"
        }
      ],
      "name": "checkHasWon",
      "outputs": [
        {
          "name": "",
          "type": "bool"
        }
      ],
      "payable": false,
      "stateMutability": "view",
      "type": "function",
      "signature": "0xbfd2b628"
    },
    {
      "constant": false,
      "inputs": [
        {
          "name": "gameId",
          "type": "uint256"
        }
      ],
      "name": "cancelCreatedGame",
      "outputs": [],
      "payable": false,
      "stateMutability": "nonpayable",
      "type": "function",
      "signature": "0xb153ac55"
    }
  ],
  "bytecode": "0x608060405234801561001057600080fd5b50336000806101000a81548173ffffffffffffffffffffffffffffffffffffffff021916908373ffffffffffffffffffffffffffffffffffffffff1602179055506000809054906101000a900473ffffffffffffffffffffffffffffffffffffffff1673ffffffffffffffffffffffffffffffffffffffff16600073ffffffffffffffffffffffffffffffffffffffff167f8be0079c531659141344cd1fd0a4f28419497f9722a3daafe3b4186f6b6457e060405160405180910390a3612ccd806100dc6000396000f3fe6080604052600436106101df576000357c0100000000000000000000000000000000000000000000000000000000900480637d03f5f311610114578063a960f05b116100b2578063dabf0edb11610081578063dabf0edb146109eb578063efaa55a014610a16578063eff53a6914610a44578063f2fde38b14610a7f576101df565b8063a960f05b14610841578063b153ac55146108bc578063bfd2b628146108f7578063c95066d814610998576101df565b80638da5cb5b116100ee5780638da5cb5b146106f4578063944bb4f91461074b57806397ec23cb146107a3578063a33d1cae146107f2576101df565b80637d03f5f31461065f5780637f7dcdbf1461067d5780637fd6f7c4146106ac576101df565b80633d412d0f1161018157806345e09e541161015b57806345e09e541461057b578063715018a6146105f257806375d1a8bc1461060957806379cf1c9d14610634576101df565b80633d412d0f146103df578063404cf0991461045a5780634129b2c914610500576101df565b806322671fe9116101bd57806322671fe9146102e1578063266386311461031c5780632e1a7d4d146103795780633c1d93bd146103b4576101df565b80630628b6ba146101f15780630852799114610240578063224bbbac1461028f575b3480156101eb57600080fd5b50600080fd5b3480156101fd57600080fd5b5061022a6004803603602081101561021457600080fd5b8101908080359060200190929190505050610ad0565b6040518082815260200191505060405180910390f35b34801561024c57600080fd5b506102796004803603602081101561026357600080fd5b8101908080359060200190929190505050610b64565b6040518082815260200191505060405180910390f35b34801561029b57600080fd5b506102df600480360360c08110156102b257600080fd5b8101908080359060200190929190803560ff16906020019092919080608001909192919290505050610bf8565b005b3480156102ed57600080fd5b5061031a6004803603602081101561030457600080fd5b8101908080359060200190929190505050610d0e565b005b34801561032857600080fd5b506103556004803603602081101561033f57600080fd5b8101908080359060200190929190505050610f7b565b6040518082600281111561036557fe5b60ff16815260200191505060405180910390f35b34801561038557600080fd5b506103b26004803603602081101561039c57600080fd5b810190808035906020019092919050505061101c565b005b3480156103c057600080fd5b506103c9611178565b6040518082815260200191505060405180910390f35b3480156103eb57600080fd5b506104186004803603602081101561040257600080fd5b8101908080359060200190929190505050611182565b604051808273ffffffffffffffffffffffffffffffffffffffff1673ffffffffffffffffffffffffffffffffffffffff16815260200191505060405180910390f35b34801561046657600080fd5b506104a96004803603602081101561047d57600080fd5b81019080803573ffffffffffffffffffffffffffffffffffffffff169060200190929190505050611236565b6040518080602001828103825283818151815260200191508051906020019060200280838360005b838110156104ec5780820151818401526020810190506104d1565b505050509050019250505060405180910390f35b34801561050c57600080fd5b506105396004803603602081101561052357600080fd5b8101908080359060200190929190505050611309565b604051808273ffffffffffffffffffffffffffffffffffffffff1673ffffffffffffffffffffffffffffffffffffffff16815260200191505060405180910390f35b34801561058757600080fd5b506105b46004803603602081101561059e57600080fd5b81019080803590602001909291905050506113bd565b6040518082602a60200280838360005b838110156105df5780820151818401526020810190506105c4565b5050505090500191505060405180910390f35b3480156105fe57600080fd5b506106076114c0565b005b34801561061557600080fd5b5061061e611592565b6040518082815260200191505060405180910390f35b34801561064057600080fd5b5061064961159c565b6040518082815260200191505060405180910390f35b61066761177a565b6040518082815260200191505060405180910390f35b34801561068957600080fd5b50610692611800565b604051808215151515815260200191505060405180910390f35b3480156106b857600080fd5b506106f2600480360360408110156106cf57600080fd5b8101908080359060200190929190803560ff169060200190929190505050611857565b005b34801561070057600080fd5b50610709611b58565b604051808273ffffffffffffffffffffffffffffffffffffffff1673ffffffffffffffffffffffffffffffffffffffff16815260200191505060405180910390f35b61078d6004803603602081101561076157600080fd5b81019080803573ffffffffffffffffffffffffffffffffffffffff169060200190929190505050611b81565b6040518082815260200191505060405180910390f35b3480156107af57600080fd5b506107dc600480360360208110156107c657600080fd5b8101908080359060200190929190505050611c5f565b6040518082815260200191505060405180910390f35b3480156107fe57600080fd5b5061082b6004803603602081101561081557600080fd5b8101908080359060200190929190505050611cf3565b6040518082815260200191505060405180910390f35b34801561084d57600080fd5b5061087a6004803603602081101561086457600080fd5b8101908080359060200190929190505050611d87565b604051808273ffffffffffffffffffffffffffffffffffffffff1673ffffffffffffffffffffffffffffffffffffffff16815260200191505060405180910390f35b3480156108c857600080fd5b506108f5600480360360208110156108df57600080fd5b8101908080359060200190929190505050611e3b565b005b34801561090357600080fd5b5061097e600480360360c081101561091a57600080fd5b8101908080359060200190929190803560ff16906020019092919080608001906004806020026040519081016040528092919082600460200280828437600081840152601f19601f820116905080830192505050505050919291929050505061200c565b604051808215151515815260200191505060405180910390f35b3480156109a457600080fd5b506109d1600480360360208110156109bb57600080fd5b81019080803590602001909291905050506122cb565b604051808215151515815260200191505060405180910390f35b3480156109f757600080fd5b50610a0061236c565b6040518082815260200191505060405180910390f35b610a4260048036036020811015610a2c57600080fd5b8101908080359060200190929190505050612376565b005b348015610a5057600080fd5b50610a7d60048036036020811015610a6757600080fd5b81019080803590602001909291905050506126db565b005b348015610a8b57600080fd5b50610ace60048036036020811015610aa257600080fd5b81019080803573ffffffffffffffffffffffffffffffffffffffff169060200190929190505050612793565b005b600081600073ffffffffffffffffffffffffffffffffffffffff166001600083815260200190815260200160002060040160019054906101000a900473ffffffffffffffffffffffffffffffffffffffff1673ffffffffffffffffffffffffffffffffffffffff1614151515610b4557600080fd5b6001600084815260200190815260200160002060020154915050919050565b600081600073ffffffffffffffffffffffffffffffffffffffff166001600083815260200190815260200160002060040160019054906101000a900473ffffffffffffffffffffffffffffffffffffffff1673ffffffffffffffffffffffffffffffffffffffff1614151515610bd957600080fd5b6001600084815260200190815260200160002060000154915050919050565b82610c048160016127b2565b73ffffffffffffffffffffffffffffffffffffffff163373ffffffffffffffffffffffffffffffffffffffff16141515610c3d57600080fd5b836001600082815260200190815260200160002060060160159054906101000a900460ff161515610c6d57600080fd5b60006001600087815260200190815260200160002060040160009054906101000a900460ff1690506000610ca28760016127b2565b9050610cae8787611857565b610cf08783876004806020026040519081016040528092919082600460200280828437600081840152601f19601f82011690508083019250505050505061200c565b1515610cfb57600080fd5b610d058782612908565b50505050505050565b806001600082815260200190815260200160002060040160019054906101000a900473ffffffffffffffffffffffffffffffffffffffff1673ffffffffffffffffffffffffffffffffffffffff163373ffffffffffffffffffffffffffffffffffffffff161480610de057506001600082815260200190815260200160002060050160009054906101000a900473ffffffffffffffffffffffffffffffffffffffff1673ffffffffffffffffffffffffffffffffffffffff163373ffffffffffffffffffffffffffffffffffffffff16145b1515610deb57600080fd5b816001600082815260200190815260200160002060060160159054906101000a900460ff161515610e1b57600080fd5b6001600084815260200190815260200160002060040160019054906101000a900473ffffffffffffffffffffffffffffffffffffffff1673ffffffffffffffffffffffffffffffffffffffff163373ffffffffffffffffffffffffffffffffffffffff161415610eca57610ec5836001600086815260200190815260200160002060050160009054906101000a900473ffffffffffffffffffffffffffffffffffffffff16612908565b610f76565b6001600084815260200190815260200160002060050160009054906101000a900473ffffffffffffffffffffffffffffffffffffffff1673ffffffffffffffffffffffffffffffffffffffff163373ffffffffffffffffffffffffffffffffffffffff161415610f7557610f74836001600086815260200190815260200160002060040160019054906101000a900473ffffffffffffffffffffffffffffffffffffffff16612908565b5b5b505050565b600081600073ffffffffffffffffffffffffffffffffffffffff166001600083815260200190815260200160002060040160019054906101000a900473ffffffffffffffffffffffffffffffffffffffff1673ffffffffffffffffffffffffffffffffffffffff1614151515610ff057600080fd5b6001600084815260200190815260200160002060040160009054906101000a900460ff16915050919050565b6001600082815260200190815260200160002060060160159054906101000a900460ff1615156000151514151561105257600080fd5b6001600082815260200190815260200160002060060160009054906101000a900473ffffffffffffffffffffffffffffffffffffffff1673ffffffffffffffffffffffffffffffffffffffff163373ffffffffffffffffffffffffffffffffffffffff161415156110c257600080fd5b60006001600083815260200190815260200160002060010154600160008481526020019081526020016000206000015401905060006001600084815260200190815260200160002060000181905550600060016000848152602001908152602001600020600101819055503373ffffffffffffffffffffffffffffffffffffffff166108fc829081150290604051600060405180830381858888f19350505050158015611173573d6000803e3d6000fd5b505050565b6000600354905090565b600081600073ffffffffffffffffffffffffffffffffffffffff166001600083815260200190815260200160002060040160019054906101000a900473ffffffffffffffffffffffffffffffffffffffff1673ffffffffffffffffffffffffffffffffffffffff16141515156111f757600080fd5b6001600084815260200190815260200160002060050160009054906101000a900473ffffffffffffffffffffffffffffffffffffffff16915050919050565b6060600073ffffffffffffffffffffffffffffffffffffffff168273ffffffffffffffffffffffffffffffffffffffff161415151561127457600080fd5b600260008373ffffffffffffffffffffffffffffffffffffffff1673ffffffffffffffffffffffffffffffffffffffff1681526020019081526020016000208054806020026020016040519081016040528092919081815260200182805480156112fd57602002820191906000526020600020905b8154815260200190600101908083116112e9575b50505050509050919050565b600081600073ffffffffffffffffffffffffffffffffffffffff166001600083815260200190815260200160002060040160019054906101000a900473ffffffffffffffffffffffffffffffffffffffff1673ffffffffffffffffffffffffffffffffffffffff161415151561137e57600080fd5b6001600084815260200190815260200160002060060160009054906101000a900473ffffffffffffffffffffffffffffffffffffffff16915050919050565b6113c5612c7d565b81600073ffffffffffffffffffffffffffffffffffffffff166001600083815260200190815260200160002060040160019054906101000a900473ffffffffffffffffffffffffffffffffffffffff1673ffffffffffffffffffffffffffffffffffffffff161415151561143857600080fd5b60016000848152602001908152602001600020600701602a806020026040519081016040528092919082602a80156114b3576020028201916000905b82829054906101000a900460ff16600281111561148d57fe5b815260200190600101906020826000010492830192600103820291508084116114745790505b5050505050915050919050565b6114c8611800565b15156114d357600080fd5b600073ffffffffffffffffffffffffffffffffffffffff166000809054906101000a900473ffffffffffffffffffffffffffffffffffffffff1673ffffffffffffffffffffffffffffffffffffffff167f8be0079c531659141344cd1fd0a4f28419497f9722a3daafe3b4186f6b6457e060405160405180910390a360008060006101000a81548173ffffffffffffffffffffffffffffffffffffffff021916908373ffffffffffffffffffffffffffffffffffffffff160217905550565b6000610708905090565b600080600073ffffffffffffffffffffffffffffffffffffffff166001600083815260200190815260200160002060040160019054906101000a900473ffffffffffffffffffffffffffffffffffffffff1673ffffffffffffffffffffffffffffffffffffffff161415151561161157600080fd5b60008090505b6003548111151561170757600015156001600083815260200190815260200160002060060160159054906101000a900460ff1615151480156116bb5750600073ffffffffffffffffffffffffffffffffffffffff166001600083815260200190815260200160002060060160009054906101000a900473ffffffffffffffffffffffffffffffffffffffff1673ffffffffffffffffffffffffffffffffffffffff16145b80156116ee5750600015156001600083815260200190815260200160002060060160149054906101000a900460ff161515145b156116fc5780925050611776565b806001019050611617565b506040517f08c379a000000000000000000000000000000000000000000000000000000000815260040180806020018281038252600d8152602001807f6e6f206f70656e2067616d65730000000000000000000000000000000000000081525060200191505060405180910390fd5b5090565b6000806117856129fb565b9050600260003373ffffffffffffffffffffffffffffffffffffffff1673ffffffffffffffffffffffffffffffffffffffff1681526020019081526020016000208190806001815401808255809150509060018203906000526020600020016000909192909190915055506117f981612a13565b8091505090565b60008060009054906101000a900473ffffffffffffffffffffffffffffffffffffffff1673ffffffffffffffffffffffffffffffffffffffff163373ffffffffffffffffffffffffffffffffffffffff1614905090565b816118638160016127b2565b73ffffffffffffffffffffffffffffffffffffffff163373ffffffffffffffffffffffffffffffffffffffff1614151561189c57600080fd5b826001600082815260200190815260200160002060060160159054906101000a900460ff1615156118cc57600080fd5b83610e10600160008381526020019081526020016000206002015401421015156118f557600080fd5b60006001600087815260200190815260200160002060040160009054906101000a900460ff16905060008560ff1610158015611935575060298560ff1611155b151561194057600080fd5b6000600281111561194d57fe5b600160008881526020019081526020016000206007018660ff16602a8110151561197357fe5b602091828204019190069054906101000a900460ff16600281111561199457fe5b1415156119a057600080fd5b60228560ff16111515611a1257600060028111156119ba57fe5b600160008881526020019081526020016000206007016007870160ff16602a811015156119e357fe5b602091828204019190069054906101000a900460ff166002811115611a0457fe5b14151515611a1157600080fd5b5b80600160008881526020019081526020016000206007018660ff16602a81101515611a3957fe5b602091828204019190066101000a81548160ff02191690836002811115611a5c57fe5b021790555060016002811115611a6e57fe5b816002811115611a7a57fe5b1415611abd5760026001600088815260200190815260200160002060040160006101000a81548160ff02191690836002811115611ab357fe5b0217905550611af5565b600180600088815260200190815260200160002060040160006101000a81548160ff02191690836002811115611aef57fe5b02179055505b7fcb9cc8b835c561cf3bd56372dc04c065670526616c2ea14020148b21d1823b7f86828760405180848152602001836002811115611b2f57fe5b60ff1681526020018260ff1660ff168152602001935050505060405180910390a1505050505050565b60008060009054906101000a900473ffffffffffffffffffffffffffffffffffffffff16905090565b60003373ffffffffffffffffffffffffffffffffffffffff168273ffffffffffffffffffffffffffffffffffffffff1614151515611bbe57600080fd5b6000611bc86129fb565b9050600180600083815260200190815260200160002060060160146101000a81548160ff021916908315150217905550826001600083815260200190815260200160002060050160006101000a81548173ffffffffffffffffffffffffffffffffffffffff021916908373ffffffffffffffffffffffffffffffffffffffff160217905550611c5681612a13565b80915050919050565b600081600073ffffffffffffffffffffffffffffffffffffffff166001600083815260200190815260200160002060040160019054906101000a900473ffffffffffffffffffffffffffffffffffffffff1673ffffffffffffffffffffffffffffffffffffffff1614151515611cd457600080fd5b6001600084815260200190815260200160002060030154915050919050565b600081600073ffffffffffffffffffffffffffffffffffffffff166001600083815260200190815260200160002060040160019054906101000a900473ffffffffffffffffffffffffffffffffffffffff1673ffffffffffffffffffffffffffffffffffffffff1614151515611d6857600080fd5b6001600084815260200190815260200160002060010154915050919050565b600081600073ffffffffffffffffffffffffffffffffffffffff166001600083815260200190815260200160002060040160019054906101000a900473ffffffffffffffffffffffffffffffffffffffff1673ffffffffffffffffffffffffffffffffffffffff1614151515611dfc57600080fd5b6001600084815260200190815260200160002060040160019054906101000a900473ffffffffffffffffffffffffffffffffffffffff16915050919050565b80600073ffffffffffffffffffffffffffffffffffffffff166001600083815260200190815260200160002060040160019054906101000a900473ffffffffffffffffffffffffffffffffffffffff1673ffffffffffffffffffffffffffffffffffffffff1614151515611eae57600080fd5b816001600082815260200190815260200160002060060160159054906101000a900460ff16151515611edf57600080fd5b8261070860016000838152602001908152602001600020600301540142111515611f0857600080fd5b836001600082815260200190815260200160002060040160019054906101000a900473ffffffffffffffffffffffffffffffffffffffff1673ffffffffffffffffffffffffffffffffffffffff163373ffffffffffffffffffffffffffffffffffffffff16141515611f7957600080fd5b336001600087815260200190815260200160002060060160006101000a81548173ffffffffffffffffffffffffffffffffffffffff021916908373ffffffffffffffffffffffffffffffffffffffff1602179055507f51293de05a98b6c08794e8015aede75c44989142969825f8609ad676f134de63856040518082815260200191505060405180910390a15050505050565b600080600090505b60048160ff1610156120ee576000838260ff1660048110151561203357fe5b602002015160ff161015801561206257506029838260ff1660048110151561205757fe5b602002015160ff1611155b151561206d57600080fd5b83600281111561207957fe5b60016000878152602001908152602001600020600701848360ff166004811015156120a057fe5b602002015160ff16602a811015156120b457fe5b602091828204019190069054906101000a900460ff1660028111156120d557fe5b1415156120e157600080fd5b8080600101915050612014565b508160016004811015156120fe57fe5b602002015160ff1682600060048110151561211557fe5b602002015160ff1611151561212957600080fd5b600082600160048110151561213a57fe5b602002015183600060048110151561214e57fe5b60200201510390508060ff1683600260048110151561216957fe5b602002015184600160048110151561217d57fe5b60200201510360ff161480156121c057508060ff168360036004811015156121a157fe5b60200201518460026004811015156121b557fe5b60200201510360ff16145b15156121cb57600080fd5b60068160ff1614156122345760078360006004811015156121e857fe5b602002015160ff168115156121f957fe5b0660ff16600784600360048110151561220e57fe5b602002015160ff1681151561221f57fe5b0660ff1611151561222f57600080fd5b6122bf565b60018160ff161480612249575060088160ff16145b156122ab57600783600360048110151561225f57fe5b602002015160ff1681151561227057fe5b0660ff16600784600060048110151561228557fe5b602002015160ff1681151561229657fe5b0660ff161115156122a657600080fd5b6122be565b60078160ff161415156122bd57600080fd5b5b5b60019150509392505050565b600081600073ffffffffffffffffffffffffffffffffffffffff166001600083815260200190815260200160002060040160019054906101000a900473ffffffffffffffffffffffffffffffffffffffff1673ffffffffffffffffffffffffffffffffffffffff161415151561234057600080fd5b6001600084815260200190815260200160002060060160159054906101000a900460ff16915050919050565b6000610e10905090565b80600073ffffffffffffffffffffffffffffffffffffffff166001600083815260200190815260200160002060040160019054906101000a900473ffffffffffffffffffffffffffffffffffffffff1673ffffffffffffffffffffffffffffffffffffffff16141515156123e957600080fd5b816001600082815260200190815260200160002060060160159054906101000a900460ff1615151561241a57600080fd5b3373ffffffffffffffffffffffffffffffffffffffff166001600085815260200190815260200160002060040160019054906101000a900473ffffffffffffffffffffffffffffffffffffffff1673ffffffffffffffffffffffffffffffffffffffff161415151561248b57600080fd5b6000341415806124b257506000600160008581526020019081526020016000206000015414155b156124dd57600160008481526020019081526020016000206000015434141515156124dc57600080fd5b5b6001600084815260200190815260200160002060060160149054906101000a900460ff161561257b573373ffffffffffffffffffffffffffffffffffffffff166001600085815260200190815260200160002060050160009054906101000a900473ffffffffffffffffffffffffffffffffffffffff1673ffffffffffffffffffffffffffffffffffffffff1614151561257657600080fd5b6125d1565b336001600085815260200190815260200160002060050160006101000a81548173ffffffffffffffffffffffffffffffffffffffff021916908373ffffffffffffffffffffffffffffffffffffffff1602179055505b346001600085815260200190815260200160002060000154111561262b57600180600085815260200190815260200160002060040160006101000a81548160ff0219169083600281111561262157fe5b0217905550612664565b60026001600085815260200190815260200160002060040160006101000a81548160ff0219169083600281111561265e57fe5b02179055505b600260003373ffffffffffffffffffffffffffffffffffffffff1673ffffffffffffffffffffffffffffffffffffffff1681526020019081526020016000208390806001815401808255809150509060018203906000526020600020016000909192909190915055506126d683612ae5565b505050565b80610e106001600083815260200190815260200160002060020154014211151561270457600080fd5b816127108160006127b2565b73ffffffffffffffffffffffffffffffffffffffff163373ffffffffffffffffffffffffffffffffffffffff1614151561274957600080fd5b826001600082815260200190815260200160002060060160159054906101000a900460ff16151561277957600080fd5b61278d846127888660006127b2565b612908565b50505050565b61279b611800565b15156127a657600080fd5b6127af81612b83565b50565b6000806001600085815260200190815260200160002060040160009054906101000a900460ff169050600160028111156127e857fe5b8160028111156127f457fe5b1480156127fe5750825b80612828575060028081111561281057fe5b81600281111561281c57fe5b148015612827575082155b5b1561286c576001600085815260200190815260200160002060040160019054906101000a900473ffffffffffffffffffffffffffffffffffffffff16915050612902565b6001600281111561287957fe5b81600281111561288557fe5b148015612890575082155b806128b957506002808111156128a257fe5b8160028111156128ae57fe5b1480156128b85750825b5b156128fd576001600085815260200190815260200160002060050160009054906101000a900473ffffffffffffffffffffffffffffffffffffffff16915050612902565b600080fd5b92915050565b60006001600084815260200190815260200160002060060160156101000a81548160ff021916908315150217905550806001600084815260200190815260200160002060060160006101000a81548173ffffffffffffffffffffffffffffffffffffffff021916908373ffffffffffffffffffffffffffffffffffffffff1602179055507f2799f7db9b662090ba734216b411a1786edb43fd4d384f1eb7f332e824347bf98282604051808381526020018273ffffffffffffffffffffffffffffffffffffffff1673ffffffffffffffffffffffffffffffffffffffff1681526020019250505060405180910390a15050565b60006003600081548092919060010191905055905090565b346001600083815260200190815260200160002060000181905550336001600083815260200190815260200160002060040160016101000a81548173ffffffffffffffffffffffffffffffffffffffff021916908373ffffffffffffffffffffffffffffffffffffffff1602179055504260016000838152602001908152602001600020600301819055507f3e004982d0718a79f3a35e4bdf21d460d31e844b8df896563aa195fd8f39c2b481600060405180838152602001821515151581526020019250505060405180910390a150565b346001600083815260200190815260200160002060010181905550600180600083815260200190815260200160002060060160156101000a81548160ff0219169083151502179055504260016000838152602001908152602001600020600201819055507fb8224041c758d3060a116b5d721f236d52f8169ad9f0306c5d14d60bb043ac9e816040518082815260200191505060405180910390a150565b600073ffffffffffffffffffffffffffffffffffffffff168173ffffffffffffffffffffffffffffffffffffffff1614151515612bbf57600080fd5b8073ffffffffffffffffffffffffffffffffffffffff166000809054906101000a900473ffffffffffffffffffffffffffffffffffffffff1673ffffffffffffffffffffffffffffffffffffffff167f8be0079c531659141344cd1fd0a4f28419497f9722a3daafe3b4186f6b6457e060405160405180910390a3806000806101000a81548173ffffffffffffffffffffffffffffffffffffffff021916908373ffffffffffffffffffffffffffffffffffffffff16021790555050565b61054060405190810160405280602a9060208202803883398082019150509050509056fea165627a7a7230582005049a6b3a5b582c9875b8dfaa0181cf6b241314f461fc911130d8f1e64663e30029",
  "source": "pragma solidity ^0.5.2;\n\nimport \"./FourConnectCalls.sol\";\n\n/// @title Contract for a Connect Four Game\n/// @author Marius Reimer\n/// @notice \n/// @dev This is the core contract\ncontract FourConnect is FourConnectCalls {\n    \n    constructor() public {\n    }\n\n    /// @notice Fallback method. Sending ether to this contract \n    /// will cause expection, since 'payable' is missing. \n    function() external {\n        revert();\n    }\n\n    /// @notice The winner may withdraw the amount\n    /// @param gameId The id of the game\n    function withdraw(uint gameId) \n        public {\n        require(false == games[gameId].running);\n        require(msg.sender == games[gameId].winner);\n\n        uint amount = games[gameId].bidPlayerOne + games[gameId].bidPlayerTwo;\n        games[gameId].bidPlayerOne = 0;\n        games[gameId].bidPlayerTwo = 0;\n        // Zero the pending refund before\n        // sending to prevent re-entrancy attacks\n        msg.sender.transfer(amount);\n    }\n\n    /// @notice Creates a non restricted game (anyone can join)\n    function newGame() \n        external \n        payable\n        returns(uint) {\n        uint gameId = nextUID();\n        joinedGames[msg.sender].push(gameId);\n        internalGameInit(gameId);\n        return gameId;\n    }\n\n    /// @notice Creates a restricted game (only the specified player can join)\n    /// @param playerTwo The second player to join this game\n    function newRestrictedGame(address playerTwo) \n        external \n        payable\n        returns(uint) {\n        require(playerTwo != msg.sender);\n        uint gameId = nextUID();\n        games[gameId].exclusive = true;\n        games[gameId].playerTwo = playerTwo;\n        internalGameInit(gameId);\n        return gameId;\n    }\n\n    /// @notice Join a specific game\n    /// @param gameId The id of the game\n    function joinGame(uint gameId) \n        external \n        payable\n        onlyWhenGameExists(gameId)\n        onlyWhenNotRunning(gameId) {\n        require(games[gameId].playerOne != msg.sender);\n\n        // if a game without bid exists, do no check, otherwise they must not be equal\n        if (msg.value != 0 || games[gameId].bidPlayerOne != 0) {\n            require(msg.value != games[gameId].bidPlayerOne);\n        }\n\n        if (games[gameId].exclusive) {\n            require(games[gameId].playerTwo == msg.sender);\n        } else {\n            games[gameId].playerTwo = msg.sender;\n        }\n\n        // select first player depending on the higher bid price\n        if (games[gameId].bidPlayerOne > msg.value) {\n            games[gameId].currentPlayer = Player.ONE;\n        } else {\n            games[gameId].currentPlayer = Player.TWO;\n        }\n\n        joinedGames[msg.sender].push(gameId);\n\n        internalGameStart(gameId);\n    }\n\n    /// @notice Join a specific game\n    /// @param gameId The id of the game\n    function claimTimeoutVictory(uint gameId)\n        external\n        onlyAfterTimeout(gameId)\n        onlyInactivePlayer(gameId)\n        onlyWhenRunning(gameId)\n    {\n        // game ends with inactive player\n        internalGameEnd(gameId, getPlayerAddress(gameId, false));\n    }\n\n    //The pieces in toClaim must be sorted positions, least to greatest\n    function makeMoveAndClaimVictory(uint gameId, uint8 moveToMake, uint8[4] calldata claim)\n        external\n        onlyActivePlayer(gameId)\n        onlyWhenRunning(gameId)\n    {\n        Player player = games[gameId].currentPlayer;\n        // get active player\n        address playerAddress = getPlayerAddress(gameId, true);\n\n        makeMove(gameId, moveToMake);\n\n        require(checkHasWon(gameId, player, claim));\n\n        // game ends with active player\n        internalGameEnd(gameId, playerAddress);\n    }\n\n    /// @notice Checks and persists the move on the board\n    /// @param gameId The id of the game\n    /// @param position Board position for the desired move\n    function makeMove(uint gameId, uint8 position)\n        public\n        onlyActivePlayer(gameId)\n        onlyWhenRunning(gameId)\n        onlyInTimeout(gameId)\n    {\n        Player player = games[gameId].currentPlayer;\n/*\n    0   1   2   3   4   5   6\n    7   8   9   10\t11\t12\t13\n    14\t15\t16\t17\t18\t19\t20\n    21\t22\t23\t24\t25\t26\t27\n    28\t29\t30\t31\t32\t33\t34\n    35\t36\t37\t38\t39\t40\t41\n*/\n        require(position >= 0 && position <= 41);\n        require(games[gameId].board[position] == Player.NONE);\n\n        if (position <= 34){\n            require(games[gameId].board[position + 7] != Player.NONE);\n        }\n\n        games[gameId].board[position] = player;\n\n        if (player == Player.ONE) {\n            games[gameId].currentPlayer = Player.TWO;\n        } else {\n            games[gameId].currentPlayer = Player.ONE;\n        }\n\n        emit logGameMoveMade(gameId, player, position);\n    }\n\n    /// @notice Give players the possibilty to give up at any time, so that the other player wins\n    /// @param gameId The id of the game\n    function giveUp(uint gameId) \n        external\n        onlyPlayers(gameId)\n        onlyWhenRunning(gameId) {\n        if (msg.sender == games[gameId].playerOne) {\n            internalGameEnd(gameId, games[gameId].playerTwo);\n        } else if (msg.sender == games[gameId].playerTwo) {\n            internalGameEnd(gameId, games[gameId].playerOne);\n        }\n    } \n\n    /// @notice Check if claimed moves are a valid win\n    /// @param gameId The id of the game\n    /// @param who The Player who claimed the win\n    /// @param moves Set of positions claimed for the win\n    /// @return true if won, else exception is thrown\n    function checkHasWon(uint gameId, Player who, uint8[4] memory moves) \n        public \n        view \n        returns(bool) {\n        for (uint8 i = 0; i < 4; i++){\n            require(moves[i] >= 0 && moves[i] <= 41);\n            require(games[gameId].board[moves[i]] == who);\n        }\n\n        /*\n        0   1   2   3   4   5   6\n        7   8   9   10\t11\t12\t13\n        14\t15\t16\t17\t18\t19\t20\n        21\t22\t23\t24\t25\t26\t27\n        28\t29\t30\t31\t32\t33\t34\n        35\t36\t37\t38\t39\t40\t41\n        */\n\n        // All moves must be in decreasing order and have the same distance to each other\n        require(moves[0] > moves[1]);\n\n        uint8 diff = moves[0] - moves[1];\n\n        require(\n            moves[1] - moves[2] == diff &&\n            moves[2] - moves[3] == diff);\n\n        // Check if moves are arranged correctly, because relying to the diff alone\n        // is not enough (example: moves in 37, 29, 21, 13 are not valid)\n        if (diff == 6) {\n            // diagonal-left claim. therefore:\n            // last id must be further to the left than the first\n            require(moves[3] % 7 > moves[0] % 7);\n        } else if (diff == 1 || diff == 8) {\n            // horizontal or diagonal-left claim. therefore:\n            // last id must be further to the left than the first\n            require(moves[0] % 7 > moves[3] % 7);\n        } else if (diff != 7) {\n            // vertical moves do not need verification, since it happened in the foor loop\n            revert();\n        }\n\n        return true;\n    }\n\n    //If nobody has joined your game, you can cancel and get money back\n    function cancelCreatedGame(uint gameId)\n        external\n        onlyWhenGameExists(gameId)\n        onlyWhenNotRunning(gameId)\n        onlyAfterCreationTimeout(gameId)\n        onlyOwner(gameId) {\n        games[gameId].winner = msg.sender;\n\n        emit logGameCanceled(gameId);\n    }\n}",
  "sourcePath": "/Users/marius/d/mr/preact-fourconnect/solidity/contracts/FourConnect.sol",
  "compiler": {
    "name": "solc",
    "version": "0.5.2+commit.1df8f40c.Emscripten.clang"
  },
  "schemaVersion": "3.0.1",
  "updatedAt": "2019-02-10T00:18:50.700Z",
  "devdoc": {
    "author": "Marius Reimer",
    "details": "This is the core contract",
    "methods": {
      "checkHasWon(uint256,uint8,uint8[4])": {
        "params": {
          "gameId": "The id of the game",
          "moves": "Set of positions claimed for the win",
          "who": "The Player who claimed the win"
        },
        "return": "true if won, else exception is thrown"
      },
      "claimTimeoutVictory(uint256)": {
        "params": {
          "gameId": "The id of the game"
        }
      },
      "giveUp(uint256)": {
        "params": {
          "gameId": "The id of the game"
        }
      },
      "isContractOwner()": {
        "return": "true if `msg.sender` is the owner of the contract."
      },
      "joinGame(uint256)": {
        "params": {
          "gameId": "The id of the game"
        }
      },
      "makeMove(uint256,uint8)": {
        "params": {
          "gameId": "The id of the game",
          "position": "Board position for the desired move"
        }
      },
      "newRestrictedGame(address)": {
        "params": {
          "playerTwo": "The second player to join this game"
        }
      },
      "owner()": {
        "return": "the address of the owner."
      },
      "renounceOwnership()": {
        "details": "Allows the current owner to relinquish control of the contract."
      },
      "transferOwnership(address)": {
        "details": "Allows the current owner to transfer control of the contract to a newOwner.",
        "params": {
          "newOwner": "The address to transfer ownership to."
        }
      },
      "withdraw(uint256)": {
        "params": {
          "gameId": "The id of the game"
        }
      }
    },
    "title": "Contract for a Connect Four Game"
  },
  "userdoc": {
    "methods": {
      "checkHasWon(uint256,uint8,uint8[4])": {
        "notice": "Check if claimed moves are a valid win"
      },
      "claimTimeoutVictory(uint256)": {
        "notice": "Join a specific game"
      },
      "giveUp(uint256)": {
        "notice": "Give players the possibilty to give up at any time, so that the other player wins"
      },
      "joinGame(uint256)": {
        "notice": "Join a specific game"
      },
      "makeMove(uint256,uint8)": {
        "notice": "Checks and persists the move on the board"
      },
      "newGame()": {
        "notice": "Creates a non restricted game (anyone can join)"
      },
      "newRestrictedGame(address)": {
        "notice": "Creates a restricted game (only the specified player can join)"
      },
      "renounceOwnership()": {
        "notice": "Renouncing to ownership will leave the contract without an owner. It will not be possible to call the functions with the `onlyOwner` modifier anymore."
      },
      "withdraw(uint256)": {
        "notice": "The winner may withdraw the amount"
      }
    }
  }
}