{
  "contractName": "Thrower",
  "abi": [
    {
      "constant": false,
      "inputs": [
        {
          "name": "_amount",
          "type": "uint256"
        }
      ],
      "name": "setAmount",
      "outputs": [],
      "payable": true,
      "stateMutability": "payable",
      "type": "function",
      "signature": "0x271f88b4"
    }
  ],
  "bytecode": "0x608060405261177060005534801561001657600080fd5b5060ad806100256000396000f3fe6080604052600436106039576000357c010000000000000000000000000000000000000000000000000000000090048063271f88b414603e575b600080fd5b606760048036036020811015605257600080fd5b81019080803590602001909291905050506069565b005b806000541015607757600080fd5b806000819055505056fea165627a7a723058208c2abacff2045ee7b0d40689ed0cd2e9b0eda6a3657355195c2a76f261c5cd8a0029",
  "source": "pragma solidity >=0.5.0 < 0.6.0;\n\n// Contract you're testing\ncontract Thrower {\n    uint amount = 6000;\n\n    function setAmount(uint _amount) public payable {\n        if (amount < _amount) {\n            revert();\n        }\n        amount = _amount;\n    }\n}",
  "sourcePath": "/Users/marius/d/mr/preact-fourconnect/solidity/contracts/Thrower.sol",
  "compiler": {
    "name": "solc",
    "version": "0.5.1+commit.c8a2cb62.Emscripten.clang"
  },
  "schemaVersion": "3.0.1",
  "updatedAt": "2019-01-16T21:50:32.752Z",
  "devdoc": {
    "methods": {}
  },
  "userdoc": {
    "methods": {}
  }
}